:020000040800F2
:100000000809002089010008D51F0008C11C00084C
:10001000D11F000845020008352400080000000038
:10002000000000000000000000000000DD1F0008CC
:100030006D02000800000000D91F00082D210008F3
:10004000A3010008A3010008A3010008A301000800
:10005000A3010008A3010008A3010008A3010008F0
:10006000A3010008A3010008A3010008A3010008E0
:100070004902000855020008A301000861020008B7
:10008000A3010008A3010008A3010008A3010008C0
:10009000A3010008A3010008A3010008A3010008B0
:1000A000A3010008A3010008A3010008A3010008A0
:1000B00035210008A3010008A3010008A3010008DE
:1000C000A3010008A3010008A3010008A301000880
:1000D000A3010008A3010008A3010008A301000870
:1000E000A3010008A3010008A301000800F002F822
:1000F00000F03AF80AA090E8000C82448344AAF188
:100100000107DA4501D100F02FF8AFF2090EBAE885
:100110000F0013F0010F18BFFB1A43F0010318473B
:100120000026000020260000103A24BF78C878C1BD
:10013000FAD8520724BF30C830C144BF04680C60ED
:10014000704700000023002400250026103A28BF35
:1001500078C1FBD8520728BF30C148BF0B60704739
:100160001FB51FBD10B510BD00F031F81146FFF7E7
:10017000F7FF02F061F900F04FF803B4FFF7F2FF68
:1001800003BC00F057F800000948804709480047C1
:10019000FEE7FEE7FEE7FEE7FEE7FEE7FEE7FEE737
:1001A000FEE7FEE704480549054A064B7047000094
:1001B00031210008ED000008080300200809002094
:1001C00008050020080500207047704770477546F5
:1001D00000F02CF8AE4605006946534620F00700B3
:1001E000854618B020B5FFF7DDFFBDE820404FF091
:1001F00000064FF000074FF000084FF0000BAC4630
:10020000ACE8C009ACE8C009ACE8C009ACE8C0097A
:1002100021F007018D46704710B50446AFF300800A
:100220002046BDE81040FFF7A8BF00000048704717
:100230001000002001491820ABBEFEE72600020096
:1002400070470000FEE7000040F21810C2F2000004
:1002500000F014B840F2D400C2F2000000F00EB872
:1002600040F29000C2F2000000F008B870470000B1
:10027000EFF3108072B600BFFEE7000010B5D0E9C2
:100280000FCE0168DCF800300A6823FA0EF35C0731
:100290002AD512F0040427D00A68920603D40A680B
:1002A00022F004020A602F22C4F20202914240F2BC
:1002B0000402C4F202025BDD3023C4F2020399425D
:1002C00072D04423C4F20203994273D05823C4F27B
:1002D0000203994240F07A804FF480231360C16A90
:1002E000002940F098806FE09C0727D512F00204A7
:1002F00024D00A68920606D40A6822F00A020A602C
:10030000012280F821202F22C4F20202914240F201
:100310000402C4F202023BDD3023C4F2020399421C
:1003200060D04423C4F2020399425FD05823C4F240
:100330000203994260D14FF4003365E01B0743D5B7
:1003400012F0080208BF10BD0A6822F00E020A600F
:10035000012101FA0EF2CCF80420816380F821100B
:10036000016B0022002980F8202054D12CE000BF2E
:100370000823C4F20203994222D01C23C4F20203D0
:10038000994223D140231360C16A002943D11BE065
:100390000823C4F2020399422CD01C23C4F20203A6
:1003A000994229D120232FE04FF480631360C16A62
:1003B00089BB09E04FF480431360C16A59BB03E075
:1003C00004231360C16A31BB10BD00BF02F1680491
:1003D0004FF08063A14208BF4FF480031360C16AED
:1003E000C9B9F1E74FF400730EE000BF4FF40053BA
:1003F0000AE000BF022307E002F168044FF0007337
:10040000A14208BF4FF400131360816A0022002943
:1004100080F82020D8D0BDE81040084701460028C9
:100420004FF0010008BF70472DE9F043D1F800C03C
:100430004FF6F873CBF6FD734CF6CD426344CCF621
:10044000CC42A3FB02236FF0030707EA93030027C4
:10045000C4F2020701F10C09C1E90F730223D1E9CB
:10046000012E99E87002D1F81C8081F82130DCF867
:10047000003043F6F077BB431A4342EA0E022243B0
:100480002A43324342EA090242EA0802CCF8002039
:1004900000228A6381F8210081F820200020BDE835
:1004A000F0437047F0B590F820C0BCF1010F32D096
:1004B0004FF0010E80F820E090F821C0BCF1010F50
:1004C00026D14FF0020C80F821C04FF0000CC0F88C
:1004D00038C0D0E900C4C56AC66BDCF80070102CC7
:1004E00027F00107CCF80070006C0EFA00F0706085
:1004F0000846CCF8043004BF10460A46CCF8080081
:10050000CCF80C20DCF8000045B140F00E000DE006
:10051000002180F820100220F0BD00BF20F0040070
:10052000CCF80000DCF8000040F00A00CCF8000035
:10053000DCF8000040F00100CCF800000020F0BD25
:100540002DE9F04F82B00E68002E00F0038141F2D9
:100550000042C4F20102042340F2004E904208BF60
:1005600003234FF6FF7CC4F2010E00930024012305
:10057000C1F2100C4FF0000A4FF0000949E000BF33
:10058000012704F00C030F229A402BEA020207FA1B
:1005900003F34FEA9A051A4346F82520D1F804B030
:1005A00040F20C455FEACB22DEF8082054BF22EA75
:1005B000080242EA0802C4F20105CEF808202A68BF
:1005C0005FEA8B2354BF22EA080242EA08022A604B
:1005D0005FEA8B33DEF8042054BF22EA080242EAC5
:1005E00008025FEACB33CEF80420DEF800204FF09B
:1005F000010354BF22EA080242EA0802CEF80020B2
:100600000E680AF1010A36FA0AF204F1040400F055
:10061000A18003FA0AF816EA080FF1D04E68664581
:1006200012DC122E56D8DFE806F0350B4549555539
:1006300055555555555555555555554D510000BFB6
:10064000D1F80C9046E000BF4FF6FF72C1F22102D4
:1006500096420FDC0022C1F2110296421AD000220B
:10066000C1F21202964215D00022C1F22102964236
:1006700010D02FE00022C1F2220296420AD00022BE
:10068000C1F23102964205D00022C1F232029642F6
:1006900020D100BF8A684AB1012A14BFC0F8148073
:1006A000C0F810804FF0080914E000BF4FF00409B3
:1006B00010E000BFCA6802F108090BE04FF0000922
:1006C00008E000BFCA6802F1040903E0CA6802F149
:1006D0000C0900BF22460646BAF1080F24BF203A93
:1006E000043637680F25954027EA050509FA02F216
:1006F0002A433260CA79D2067FF582AF41F21803ED
:10070000C4F202031A68AEF57E7642F001021A6066
:100710001A6802F001020192019A2AF0030256F8C7
:1007200002B040F60002C4F20102904210D040F63E
:100730000042C4F2010290423FF422AF41F20002B3
:10074000C4F20102009F904208BF022719E700BFD0
:10075000002716E702B0BDE8F08F0000002A08BFAE
:10076000090401617047000040F28420C2F20000D9
:100770000068704740F2000040F28421C2F200009D
:10078000C2F2000100780A68104408607047000057
:1007900080B542F20000C4F20200016841F010018D
:1007A0000160032000F08EF80F2000F005F800F043
:1007B00027F8002080BD000070B540F20006C2F2AC
:1007C000000640F208013278C2F200014FF47A7359
:1007D0000968B3FBF2F20446B1FBF2F1084600F0FF
:1007E00063FB0F2C4FF0010508D838B94FF0FF30EC
:1007F00021460022002500F039F87460284670BDBB
:1008000082B041F21800C4F202000168022241F0F5
:1008100001010160016801F0010101910199416844
:1008200041F080514160406800F080500090009895
:100830000420C4F20100016862F31A61016002B091
:1008400070470000002848BF7047C1B200F01F0089
:10085000012202FA00F04EF20012CEF2000242EA49
:10086000D10121F0030108607047000010B54EF679
:100870000C5CCEF2000CDCF80030C3F3022E8EF0DC
:100880000704042C28BF0424BEF103034FF0FF3EED
:100890000EFA04F438BF0023A14399400EFA03F383
:1008A0009A43114300F00F0200F160430901043A3A
:1008B00003F564436244002848BF02F10C03197039
:1008C00010BD00004EF60C51CEF200010A684FF642
:1008D000FF031A4060F30A2242F0806040F0FD708E
:1008E000086070472DE9F04381B0002800F0858052
:1008F00042F20008C4F202080446D8F800000D468F
:1009000000F0070088420CD2D8F8000020F0070061
:100910002843C8F80000D8F8000000F00700A842FB
:100920006BD1206841F204098107C4F2020917D58E
:10093000410705D5D9F8001041F4E061C9F800106D
:10094000010705D5D9F8001041F46051C9F800102D
:10095000D9F80010A26821F0F0011143C9F8001085
:10096000C00741D1D8F8000000F00700A8420CD918
:10097000D8F8000020F007002843C8F80000D8F895
:10098000000000F00700A84237D12068410707D5D2
:10099000D9F80010E26821F4E0611143C9F80010B1
:1009A000000708D5D9F80000216920F4605040EA1A
:1009B000C100C9F80000D9F8002002F00C00082896
:1009C00041F20020C0F27A0050D142F21073C2F31B
:1009D0008341C0F60003595CD2033BD440F60010BB
:1009E000C0F23D00484341E0606802280AD0012877
:1009F0002AD159F8041C890308D4012001B0BDE8AC
:100A0000F08300BF59F8041C8901F6D5D9F800100D
:100A100021F003010843C9F80000FFF7A5FE0646D0
:100A200041F28837D9F80000616800F00C00B0EBA3
:100A3000810F97D0FFF798FE801BB842F2D90320B0
:100A400001B0BDE8F08300BF59F8041C8907D4D574
:100A5000DCE700BFD9F8002042F20E73C2F3404237
:100A6000C0F600039A5C4843B0FBF2F0D9F80010DE
:100A700042F2F662C1F30311C0F60002515C40F28B
:100A8000080220FA01F140F20400C2F200000068FE
:100A9000C2F200021160FFF78FFE002001B0BDE836
:100AA000F083000040F2080041F20401C2F20000AD
:100AB000C4F202010068096842F20672C1F3022121
:100AC000C0F60002515CC8407047000040F20800C8
:100AD00041F20401C2F20000C4F202010068096898
:100AE00042F20672C1F3C221C0F60002515CC84056
:100AF000704700002DE9F04182B0002868D004461C
:100B0000007841F20006C007C4F2020625D07068E2
:100B100000F00C0004281BD0706800F00C000828BE
:100B200002D17068C00313D46068002800F06881A7
:100B3000B0F5A02F00F07C81B0F5803F00F07C8103
:100B4000306820F480303060306820F4802076E116
:100B50003068800301D56068D0B32078800718D54D
:100B6000706810F00C0F07D0706800F00C000828B7
:100B70006ED17068C0036BD43068800702D52069DD
:100B8000012825D13068616920F0F80040EAC100F1
:100B90003060207800071FD42078400732D4E56900
:100BA00095B1706800F00C00082840F08F80012D8E
:100BB0000ED07068216A00F480328A4208D1616ADE
:100BC00000F47010884203D1002002B0BDE8F0812B
:100BD000012002B0BDE8F081A069002862D00020A9
:100BE000C4F242200121C0F88014FFF7BDFD054684
:100BF000706A800700F18C80FFF7B6FD401B022869
:100C0000F6D92AE1F06910F0805808D1F06940F077
:100C10008050F061F06900F080500090009847F239
:100C20000007C4F200073868C00529D4386840F4CA
:100C300080703860FFF798FD054600BF3868C00532
:100C40001ED4FFF791FD401B6428F7D905E100BFD2
:100C50002069002840F20000C4F2422000F08280A7
:100C600001210160FFF780FD054600BF3068800765
:100C70003FF588AFFFF778FD401B0228F6D9ECE07E
:100C8000E068002800F08080052800F097800128A7
:100C900000F09880306A20F001003062306A20F065
:100CA000040092E00020C4F242200021C0F8801429
:100CB000FFF75AFD054600BF706A80077FF56CAFED
:100CC000FFF752FD401B0228F6D9C6E00027C4F208
:100CD000422700203866FFF747FD022D05460BD15D
:100CE0003068800140F1BE80FFF73EFD401B0228C6
:100CF0004FF00300F4D968E7306880017FF564AFF6
:100D0000FFF732FD401B02284FF00300F4D95CE7E7
:100D100040F20800C2F20000006844F6D351C1F26C
:100D20006201A0FB0101480A019000BF00BF0198C9
:100D3000411E002801913FF42FAF00BF0198411ED2
:100D4000002801913FF428AF00BF0198411E002800
:100D500001913FF421AF00BF0198411E002801918D
:100D6000E4D119E700210160FFF7FEFC054600BF52
:100D7000306880077FF50DAFFFF7F6FC401B0228B7
:100D80004FF00300F4D920E7306A20F00100306210
:100D9000306A20F004003062FFF7E6FC054641F2BD
:100DA000883700BF306A800720D5FFF7DDFC401B85
:100DB000B8424FF00300F5D907E700BF306A40F0B2
:100DC00004003062306A40F001003062FFF7CCFC72
:100DD000054641F2883700BF306A800706D4FFF726
:100DE000C3FC401BB842F7D937E000BFB8F1000F91
:100DF0007FF4D5AEF06920F08050F061CFE600BFFF
:100E0000306820F480303060306820F4802030601A
:100E1000FFF7AAFC054600BF306880037FF59DAE52
:100E2000FFF7A2FC401B64284FF00300F4D9CCE686
:100E3000306840F480203060306840F480303060AA
:100E4000FFF792FC054600BF306880033FF585AE92
:100E5000FFF78AFC401B6428F6D9032002B0BDE8E6
:100E6000F08100BF206AB0F5803F05D17168A268AB
:100E700021F40031114371607168626A21F47411C8
:100E800011430843706001203866FFF76DFC04468B
:100E9000306880013FF598AEFFF766FC001B022822
:100EA0004FF00300F4D990E6411E0020B0EB116F23
:100EB0001CBF012070474EF21002CEF200025160BA
:100EC0004EF62351CEF20001F0230B700721906003
:100ED00011607047704700007047000010B590F82F
:100EE0003C20012A4FF0020233D080F83D200268F6
:100EF000D2F804E0D2F808C00C682EF07003234347
:100F000040F2FF74C4F20004A24253600ADCB2F162
:100F1000804F13D040F20043C4F200039A420DD038
:100F200011E000BF42F60043C4F201039A4205D02B
:100F300040F60003C4F200039A4204D149682CF041
:100F40008003194391600121002280F83D1080F850
:100F50003C20104610BD0000002804BF012070474F
:100F600010B5044690F83D0028B9002084F83C00F4
:100F7000204600F06FF8022084F83D00206840F21F
:100F8000FF730268C4F2000342F6004C9842C4F2B8
:100F9000010C15DCB0F1804F1AD040F20041C4F2D0
:100FA0000001884214D0984218DCB0F1804F1DD067
:100FB00040F20041C4F20001884217D01AE000BF9D
:100FC000604505D040F60001C4F200018842EAD134
:100FD000A16822F070020A439842E6DD604505D020
:100FE00040F60001C4F20001884203D1216922F4D5
:100FF00040720A43A36922F08001D4F804E0E26859
:10100000194360450160C262C0F828E002D16169FD
:10101000CCF83010012141610269D20703D0026986
:1010200022F001020261002084F8461084F83E108C
:1010300084F83F1084F8401084F8411084F842107E
:1010400084F8431084F8441084F8451084F83D1067
:1010500010BD000080B582B00068B0F1804F1CBFA9
:1010600002B080BD41F21C00C4F2020001680022FF
:1010700041F0010101600068002100F001000190D1
:1010800001981C20FFF7F2FB1C2002B0BDE8804055
:10109000FFF7D8BB90F83D1001291CBF0120704715
:1010A000022180F83D10006840F2FF72C168C4F26E
:1010B0000002904241F00101C16009DCB0F1804FB3
:1010C00012D040F20041C4F2000188420CD012E07C
:1010D00042F60041C4F20101884205D040F6000109
:1010E000C4F20001884206D1816801F00701062997
:1010F00004BF00207047016841F001010160002039
:101100007047000080B590F83C20012A4FF00202A1
:1011100000F0C28080F83D20D0F800C04FF6777212
:10112000DCF8083023EA0202CCF808200B684F2BC9
:1011300028DC1F2B44DD202B45D0302B43D0402B07
:1011400040F0AC80D1F804E0C968DCF82030DCF86D
:10115000202022F00102CCF82020DCF8182022F018
:10116000F00242EA011123F00A0242EA0E02CCF830
:101170001810CCF82020DCF8081041F0470121F0CD
:10118000300180E06F2B27DDB3F5005F48D0B3F569
:10119000805F7AD0702B40F08180D1E901E3C9688B
:1011A000DCF8082043EA0E0322F47F4243EA0121DF
:1011B0001143CCF80810DCF8081041F0770162E028
:1011C0000BB1102B6AD1DCF8081021F07001194323
:1011D00041F0070157E000BF502B35D0602B5DD1A7
:1011E000D1F804E0C968DCF82030DCF8202022F0D7
:1011F0001002CCF82020DCF8182022F4704242EAD9
:10120000013123F0A00242EA0E12CCF81810CCF8FB
:101210002020DCF8081041F0670121F0100132E0D5
:10122000D1E901E3C968DCF8082043EA0E0322F49F
:101230007F4243EA01211143CCF80810DCF8081082
:1012400041F480411FE000BFD1F804E0C968DCF838
:101250002030DCF8202022F00102CCF82020DCF83D
:10126000182022F0F00242EA011123F00A0242EAB9
:101270000E02CCF81810CCF82020DCF8081041F051
:10128000570121F02001CCF808100022012180F83C
:101290003D10002180F83C10104680BD0122F5E78A
:1012A0007047000070B504460068C5680669B1075C
:1012B00016D515F0020113D06FF002010161012172
:1012C00021778069800703D02046FFF7E9FF05E01A
:1012D000204600F08FF8204600F02CFA00202077FE
:1012E000700719D515F0040016D020686FF00401BE
:1012F000016102212177806910F4407F04D02046EB
:10130000FFF7CEFF06E000BF204600F073F820464E
:1013100000F010FA00202077300717D515F00800EC
:1013200014D020686FF00801016104212177C069A1
:10133000800703D02046FFF7B3FF05E0204600F00A
:1013400059F8204600F0F6F900202077F00619D56C
:1013500015F0100016D020686FF01001016108210F
:101360002177C06910F4407F04D02046FFF798FF32
:1013700006E000BF204600F03DF8204600F0DAF914
:1013800000202077F00718BF15F0010002D13006C9
:1013900009D412E020686FF001010161204600F0DD
:1013A0003BFA300609D515F0800006D020686FF0B2
:1013B000800101612046FFF78DFD700609D515F00B
:1013C000400006D020686FF040010161204600F027
:1013D0007FFAB00658BF70BD15F0200008D0216814
:1013E0006FF0200220460A61BDE87040FFF774BD2F
:1013F00070BD0000704700002DE9F04390F83C30CC
:10140000012B04BF0220BDE8F0834FEAB202032A99
:101410003CD8DFE802F0034381BD00BF036842F619
:1014200000461D6A1A6AC4F2010622F001021A621D
:101430001A465C6852F818CFB3428E68D1F800E0C3
:1014400025F0020545EA06050CD1CE68D1E90578FC
:1014500024F4407425F00C0526F004063C43354383
:1014600044EA08042CF0730747EA0E075C609F61AA
:101470004F6809695F631D629F6947F008079F61B4
:101480009F6927F004079F61B2E000BF012100229D
:1014900080F83C200846BDE8F08300BF036842F6B0
:1014A00000461D6A1A6AC4F2010622F010021A628E
:1014B0001A46D3F804C052F8184FB3428E68D1F8D8
:1014C00000E025F0200545EA061510D1CE68D1E9E7
:1014D000058725F0C0096FF0400505EA06152CF4D4
:1014E000406647EA080745EA090546EA870C24F4FE
:1014F000E64444EA0E27C3F804C09F614F680969B7
:101500009F631D629F6947F400679F619F6927F48D
:1015100080679F616BE000BF036842F600461D6A6A
:101520001A6AC4F2010622F480721A621A46D3F8CB
:1015300004C052F81CEFB3428E680C6825F40075A5
:1015400045EA062511D1CE68D1E9058725F4406921
:10155000360240F2FF4526EA05052CF4405647EADC
:10156000080745EA090546EA071C2EF073072743DA
:10157000C3F804C0DF614F680969DF631D62DF697A
:1015800047F00807DF61DF6927F00407DF612FE01C
:10159000036842F60047D3F820C01A6AC4F2010774
:1015A00022F480521A621A465C6852F81C5FD1F825
:1015B00000E08E68BB4204D14F6924F4804444EAC1
:1015C00087142CF4005747EA063725F4E64646EA26
:1015D0000E265C60DE614E6809691E641F62DF6969
:1015E00047F40067DF61DF6927F48067DF61090284
:1015F0001368194311600021002280F83C2008463E
:10160000BDE8F083002804BF0120704710B50446F0
:1016100090F83D0028B9002084F83C00204600F0F6
:101620006FF8022084F83D00206840F2FF730268E2
:10163000C4F2000342F6004C9842C4F2010C15DCDF
:10164000B0F1804F1AD040F20041C4F2000188424C
:1016500014D0984218DCB0F1804F1DD040F2004108
:10166000C4F20001884217D01AE000BF604505D0DF
:1016700040F60001C4F200018842EAD1A16822F0DC
:1016800070020A439842E6DD604505D040F600014D
:10169000C4F20001884203D1216922F440720A4356
:1016A000A36922F08001D4F804E0E26819436045A0
:1016B0000160C262C0F828E002D16169CCF8301044
:1016C000012141610269D20703D0026922F00102BF
:1016D0000261002084F8461084F83E1084F83F1020
:1016E00084F8401084F8411084F8421084F84310C4
:1016F00084F8441084F8451084F83D1010BD0000B3
:1017000081B0006840F20041C4F20001884201D07B
:1017100001B0704741F21C00C4F20200016841F0C0
:1017200002010160006800F002000090009801B022
:10173000704700007047000041B1082910D004290B
:1017400014BF00F1410200F13F020BE090F83E208F
:10175000012A1CBF01207047022280F83E2013E0BE
:1017600000F140021278012A1CBF012070470222BA
:10177000082907D0042914BF80F8412080F83F20B1
:1017800002E000BF80F84020006801F01F01012244
:10179000036A8A4023EA02010162036A42F6444175
:1017A000C4F201011A43A1F14403984202620FD02E
:1017B00040F2FF71C4F20001884213DCB0F1804FA7
:1017C0001CD040F20041C4F20001884216D01CE057
:1017D0000A6842F400420A6040F2FF71C4F200015C
:1017E0008842EBDD42F60041C4F20101884205D097
:1017F00040F60001C4F20001884206D1816801F080
:101800000701062904BF00207047016841F001016B
:10181000016000207047000040F25C11C2F200013C
:10182000884218BF7047F0B581B040F27C24C2F204
:101830000004204600F064FE20886288A388141803
:10184000101AA4EB030C00EB030E0FFA8CF10FFA45
:101850008EF58CEAE1368EEAE537C21AA6EBE13660
:10186000A7EBE53710B236B23FB2B742C8BF3E462B
:1018700082EAE0372344A7EBE0371CB23FB2B7421D
:10188000C8BF3E4683EAE437A7EBE4373FB2B7422E
:10189000C8BF3E46642E0FDBB3B26326714370436C
:1018A00091FBF3FC05FB06F190FBF3F204FB06F061
:1018B00091FBF3FE90FBF3F30FFA8CF00FFA8EF12D
:1018C00012B21BB201B0BDE8F04000F089BB0000CD
:1018D000704700007047000070470000002804BFF8
:1018E0000120704710B5044690F8410028B9002047
:1018F00084F84000204600F063F8242084F841007A
:101900002068D4E90212C36823F40053C36003695A
:1019100023F440531A430261D4E904231143C268FB
:10192000194341F20C639A431143C1604169A269B2
:1019300021F44071114343F60002C4F201029042C7
:10194000416103D0FFF7AEF802E000BFFFF7BEF839
:101950006268192148439100B0FBF1F048F21F5131
:10196000C5F2EB11A0FB01235A094FF69C73C0F698
:10197000FF7302FB0300322303EB0010A0FB010105
:10198000F02303EA5113206803EB0212C1F3431161
:1019900011448160016921F490410161416921F0A4
:1019A0002A014161C16841F40051C1600020202139
:1019B000606484F8411084F84210606310BD000038
:1019C0002DE9F04186B00446006844F60001C4F2F7
:1019D0000001002788420597CDE90377029751D08F
:1019E00043F60001C4F20101884240F0B18041F2A7
:1019F0001800C4F20200016840F6000541F480417D
:101A000001600168C4F2010501F48041019101996E
:101A1000016802AE41F0040101600068314600F047
:101A20000400019001984FF400700290022003908E
:101A3000032005902846FEF783FD4FF48060029056
:101A4000002728463146CDE90377FEF779FD1C20B3
:101A5000C4F2020040F290053C30C2F20005802141
:101A60002022C5E900072846C5E90271C5E90477C7
:101A7000C5E90627FEF7D2FC002818BFFEF7F8FBE1
:101A8000E56362E041F21800C4F20200416802AE70
:101A900041F480214160416840F21C0801F480213A
:101AA000019101990168C4F2020841F00801016046
:101AB0000068314600F00800019001984FF4806002
:101AC0000290022003900320059040F60000C4F22B
:101AD000010000F580652846FEF732FD4FF40060F6
:101AE000CDE90207284631460497FEF729FD40F26A
:101AF000D40508F11400C2F200058026C5E90007EC
:101B00002846C5E90276C5E90477C5E90677FEF7F8
:101B100085FC002818BFFEF7ABFBE5636C6240F262
:101B20001815C2F2000510200021C5E900802846E2
:101B3000C5E90216C5E90411C5E90611FEF76EFCF8
:101B4000002818BFFEF794FBA56305F1240004608C
:101B500006B0BDE8F081000070B582B0044690F890
:101B6000420020280AD113460A4600294FF00100FE
:101B700018BF002B06D102B070BD00BF022002B01A
:101B800070BD00BF002522202563A262A385656485
:101B900084F842002168E06B42F2BD2C42F21D4EF7
:101BA00042F24116C0F6000CC0F6000EC0F6000668
:101BB0000431C0E90ACEC0E90C65FEF773FC01955B
:101BC000206801680191406801900198206928B35C
:101BD000206850E8030F216840F4807041E8030258
:101BE000E2B1206850E8030F216840F4807041E8BA
:101BF00003029AB1206850E8030F216840F4807016
:101C000041E8030252B1206850E8030F216840F414
:101C1000807041E80302002ADAD100BF206850E852
:101C2000050F216840F0010041E80502E2B120689B
:101C300050E8050F216840F0010041E805029AB123
:101C4000206850E8050F216840F0010041E80502D6
:101C500052B1206850E8050F216840F0010041E8CA
:101C60000502002ADAD100BF206850E8050F21687C
:101C700040F0400041E80502DAB1206850E8050F65
:101C8000216840F0400041E8050292B1206850E828
:101C9000050F216840F0400041E805024AB1206884
:101CA00050E8050F216840F0400041E80502002A95
:101CB000DAD1002002B070BD70470000704700000C
:101CC000FEE7000080B582B041F21400C4F20200C9
:101CD0000168002241F0010101600068002100F06C
:101CE0000100019001980C20FEF7C0FD0C20FEF7CA
:101CF000A9FD0D2000210022FEF7B8FD0D20FEF702
:101D0000A1FD0F2000210022FEF7B0FD0F2002B040
:101D1000BDE88040FEF796BD2DE9F04784B041F262
:101D20001800C4F20200016840F6000441F02001EE
:101D300001600168C4F2010401F0200100910099E2
:101D40000168002241F00401016001681E2601F0D3
:101D500004010091009901684FF0000941F0080169
:101D6000016000681E2100F00800009000982046E5
:101D7000FEF7F4FC04F580652846782100224FF038
:101D80007808FEF7EBFC00966E464FF0010A02273A
:101D900020463146CDE901A90397FEF7D1FB28463D
:101DA0003146CDE9008ACDE90297FEF7C9FB04B0C0
:101DB000BDE8F08780B586B040F25C100021C2F229
:101DC00000004FF0804241F61F434FF0090C05918F
:101DD000CDE90311CDE90011C0E90023C0E9021CDF
:101DE00001618161FFF7B8F8002818BFFEF740FADB
:101DF0004FF48050029040F25C10C2F2000002A941
:101E0000FFF780F9002818BFFEF732FA40F25C10A5
:101E1000C2F200006946FFF761F8002818BFFEF71C
:101E200027FA06B080BD000070B590B040F20045C2
:101E300040F2A410C4F200050021C2F200002322E7
:101E40006323CDE90811CDE90611CDE90411C0E9FC
:101E50000052C0E9021301618161FFF7D3FB002842
:101E600018BFFEF705FA40F2A410C2F2000008A95C
:101E7000FFF734F8002818BFFEF7FAF96020019048
:101E80003120029000200390059040F2A410C2F28D
:101E9000000001A90022FFF7AFFA002818BFFEF7E3
:101EA000E7F940F2A410C2F2000001A90422FFF7F2
:101EB000A3FA002818BFFEF7DBF90020029040F2D9
:101EC000A410C2F2000001A90822FFF795FA002829
:101ED00018BFFEF7CDF940F2A414C2F2000401A924
:101EE00020460C22FFF788FA002818BFFEF7C0F939
:101EF00020680021A8420E9102D010B070BD00BF32
:101F000041F21800C4F2020001680CAC41F0040177
:101F100001600168022601F004010B910B99016830
:101F200041F0080101600068214600F008000B90B4
:101F30000B98C0200C9005F582300D960F96FEF799
:101F4000FFFA0320CDE90C0605F5843021460F96F3
:101F5000FEF7F6FA10B070BD80B540F2EC1043F613
:101F60000001C2F20000C4F2010100234FF00C0C8A
:101F70004FF4165280E80E00C0E90333C0E905C3F0
:101F8000C361FFF7ABFC002808BF80BDBDE88040FF
:101F9000FEF76EB980B540F2342044F60001C2F27B
:101FA0000000C4F2000100234FF00C0C4FF4E132AA
:101FB00080E80E00C0E90333C0E905C3C361FFF741
:101FC0008DFC002808BF80BDBDE88040FEF750B9F9
:101FD000FEE70000FEE700007047000070470000C9
:101FE0002DE9F04381B040F60005C4F201059846A2
:101FF00016460F460446012828464FF0020107DB2B
:102000000122FEF7ABFB2846042100220AE000BFB4
:102010000022FEF7A3FB28460421B4F1FF3F65DD53
:1020200000220024FEF79AFB40F2A419C2F2000934
:10203000D9F8001020B2012F486328464FF008015C
:1020400006DB0122FEF78AFB28461021002209E068
:102050000022FEF783FB28461021B7F1FF3F4BDD3E
:1020600000220027FEF77AFBD9F8001038B205F5F8
:102070008064012E886320464FF0080106DB0122B0
:10208000FEF76CFB20461021002209E00022FEF73B
:1020900065FB20461021B6F1FF3F33DD002200260C
:1020A000FEF75CFBD9F8001030B205F58064B8F19A
:1020B000010FC86320464FF0200109DB0122FEF723
:1020C0004DFB204640210022FEF748FB25E000BFE3
:1020D0000022FEF743FB20464021B8F1FF3F17DD09
:1020E00000224FF00008FEF739FB16E00122FEF750
:1020F00035FB644298E700BF0122FEF72FFB7F42C9
:10210000B2E700BF0122FEF729FB7642CAE700BF13
:102110000122FEF723FBC8F10008D9F800000FFAEE
:1021200088F1016401B0BDE8F0830000FEF722BB36
:102130007047000040F25C10C2F20000FFF7B2B836
:10214000406A01684A6990F84130212B2DD112F084
:1021500080022AD00021C184016851E8031F02686F
:1021600021F0C00142E80313DBB1016851E8031F0D
:10217000026821F0C00142E8031393B1016851E8FD
:10218000031F026821F0C00142E803134BB101684C
:1021900051E8031F026821F0C00142E80313002B3D
:1021A000DAD1202180F841100168496990F8422075
:1021B000222A40F07D8011F0400179D00021C185B4
:1021C000016851E8031F026821F4907142E803138B
:1021D000BBB3016851E8031F026821F4907142E823
:1021E000031373B3016851E8031F026821F490716F
:1021F00042E803132BB3016851E8031F026821F47E
:10220000907142E80313002BDAD11AE0016851E81B
:10221000051F026821F0010142E80513DBB10168E6
:1022200051E8051F026821F0010142E8051393B14E
:10223000016851E8051F026821F0010142E8051319
:102240004BB1016851E8051F026821F0010142E825
:102250000513002BDAD1016B012924D1016851E863
:10226000031F026821F0100142E80313DBB101688B
:1022700051E8031F026821F0100142E8031393B1F3
:10228000016851E8031F026821F0100142E80313BE
:102290004BB1016851E8031F026821F0100142E8C8
:1022A0000313002BDAD1202180F8421000210163B2
:1022B000416C41F010014164FFF70EBB0168406AB8
:1022C0000968890600F19F800021C185016851E8F5
:1022D000031F026821F4807142E80313E3B101682F
:1022E00051E8031F026821F4807142E803139BB197
:1022F000016851E8031F026821F4807142E803136A
:1023000053B1016851E8031F026821F4807142E86B
:102310000313002BDAD100BF016851E8051F0268E2
:1023200021F0010142E80513BBB3016851E8051F24
:10233000026821F0010142E8051373B3016851E816
:10234000051F026821F0010142E805132BB3016863
:1023500051E8051F026821F0010142E80513002B36
:10236000DAD11AE0016851E8051F026821F0400146
:1023700042E80513DBB1016851E8051F026821F04E
:10238000400142E8051393B1016851E8051F026856
:1023900021F0400142E805134BB1016851E8051FE7
:1023A000026821F0400142E80513002BDAD1202118
:1023B00080F84210016B012925D100BF016851E866
:1023C000031F026821F0100142E80313DBB101682A
:1023D00051E8031F026821F0100142E8031393B192
:1023E000016851E8031F026821F0100142E803135D
:1023F0004BB1016851E8031F026821F0100142E867
:102400000313002BDAD100214163016B012918BFAE
:10241000FFF752BC818DFFF75DBA0000406A0121D1
:102420004163016B012918BFFFF748BC818D490842
:10243000FFF750BAFEE7000090B0FEF7A9F90024BC
:102440000120CDE90B44CDE9094406900A904FF4F0
:10245000E0104FF4803102250F9006A8CDE9071453
:10246000CDE90D51FEF746FB20B1EFF3108072B6B7
:10247000FEE700BF0F20CDE901054FF48060CDE9F4
:10248000040401A802210394FEF72CFA20B1EFF313
:10249000108072B6FEE700BFFFF73EFCFFF712FCAC
:1024A000FFF75AFDFFF7C0FCFFF774FDFFF782FC52
:1024B00040F2A414C2F2000420460021FFF73CF9C8
:1024C00020460421FFF738F920460821FFF734F9A8
:1024D00020460C21FFF730F940F25C10C2F20000F8
:1024E000FEF7D8FD40F2EC1040F28821C2F2000065
:1024F000C2F200018022FFF72FFB00BFFEE70000C1
:102500002DE9F04F40F2EC1340F27001C2F20003EB
:10251000C2F200010022DB6B4A701A6840F20C0C18
:102520005268C2F2000CC2F180088A881FFA88F350
:10253000A1F80280934238BF80339F1AD1E9046228
:10254000BCF800A007EB060EAEEB4A05AA42C1F8A4
:1025500010E00BDBAEEB0A044FF00009A24226DDCF
:102560005FFA89F0A1F80480BDE8F08F4FEA4A06CF
:102570000AEB4A0902EB0A04AC420DDAB718AF4283
:102580000CDA4A44AA420BDA04EB0A0252445244DF
:10259000AA42EFDB04E000BF224601E002EB4A0260
:1025A0004A61AEEB0A044FF00009A242D8DC40F2C7
:1025B0008828C2F2000809E08B69013201334A61C0
:1025C0008B61AEEB0A039A4200F38D80D51702EBC4
:1025D000556525F07F05551BAFB218F807606F1CD5
:1025E000A52ECD800F81E7D105F1080606F07F0604
:1025F00018F806605A2EDFD1BEB27F2E3E4688BF45
:10260000A5F17F06B5B2731C18F805B09DB27F2DF9
:1026100088BFA6F17F039DB218F805505E1CAB443D
:10262000B5B27F2D88BFA3F17F06731C9DB27F2DAD
:10263000B5B218F8055088BFA6F17F039EB218F80E
:1026400006605D4405EB060B5E1CB5B27F2D88BFAE
:10265000A3F17F06731C9DB27F2DB5B218F805500B
:1026600088BFA6F17F039EB218F806605D4435442A
:102670005E1CB4B27F2C88BFA3F17F06B3B218F8FA
:102680000330ECB29C420D70CE8095D10622C1F889
:102690000A200246C86100BFBBB2802B24BF803F26
:1026A0000F81BBB218F8033013700A898B89571C4D
:1026B00001334A899EB29642CA690F8102F1010232
:1026C000CA618B81E8D34A69BCF800A0D1F810E058
:1026D00052444FF001094A6181F80190AEEB0A03C0
:1026E0009A427FF773AFB1F802805FFA89F0A1F8E0
:1026F0000480BDE8F08F000000000000000001022F
:102700000304060708090000000001020304010297
:1027100002030405060708090A0B0C0D0E0F101022
:1027200040270008000000201000000028010008D9
:102730005027000810000020F8080000440100089D
:10274000010000001000000000127A0009000000E3
:04000005080000ED02
:00000001FF
