:020000040800F2
:10000000300A002089010008B92C00089125000859
:10001000552A0008F5030008ED360008000000002E
:100020000000000000000000000000008531000812
:100030001D04000800000000C52E0008CD32000895
:10004000A3010008A3010008A3010008A301000800
:10005000A3010008A3010008A3010008A3010008F0
:10006000A3010008A3010008A3010008A3010008E0
:10007000F903000805040008A301000811040008A2
:10008000A3010008A3010008A3010008A3010008C0
:10009000A3010008A3010008A3010008A3010008B0
:1000A000A3010008A3010008A3010008A3010008A0
:1000B000D5320008A3010008A3010008A30100082D
:1000C000A3010008A3010008A3010008A301000880
:1000D000A3010008E1360008A3010008A3010008FD
:1000E000A3010008A3010008A301000800F002F822
:1000F00000F03AF80AA090E8000C82448344AAF188
:100100000107DA4501D100F02FF8AFF2090EBAE885
:100110000F0013F0010F18BFFB1A43F0010318473B
:10012000203B0000403B0000103A24BF78C878C153
:10013000FAD8520724BF30C830C144BF04680C60ED
:10014000704700000023002400250026103A28BF35
:1001500078C1FBD8520728BF30C148BF0B60704739
:100160001FB51FBD10B510BD00F031F81146FFF7E7
:10017000F7FF03F0BDFA00F04FF803B4FFF7F2FF0A
:1001800003BC00F057F800000948804709480047C1
:10019000FEE7FEE7FEE7FEE7FEE7FEE7FEE7FEE737
:1001A000FEE7FEE704480549054A064B7047000094
:1001B000D1320008ED00000830040020300A002091
:1001C00030060020300600207047704770477546A3
:1001D00000F02CF8AE4605006946534620F00700B3
:1001E000854618B020B5FFF7DDFFBDE820404FF091
:1001F00000064FF000074FF000084FF0000BAC4630
:10020000ACE8C009ACE8C009ACE8C009ACE8C0097A
:1002100021F007018D46704710B50446AFF300800A
:100220002046BDE81040FFF7A8BF00000048704717
:100230003000002001491820ABBEFEE72600020076
:10024000704700002DE9F04F81B040F2000CC2F27F
:10025000000C40F2B4090CF1080BC2F200090020B6
:100260009BE8420889F81D00DCE905A80F7835787D
:100270009BF800107A199AF80040DCF81CE00A4458
:10028000101998F800209EF8003010441844C0B2AD
:10029000052813D15220002F08BF4C20002D08BF85
:1002A0005220002908BF4C20002C08BF5220002AF1
:1002B00008BF4C20002B08BF52205DE09CF80010C6
:1002C000FF205A294FF0000301BF002F012389F8B6
:1002D0001D3000209CF801105A2901D1317859B104
:1002E0009CF802105A290FD19BF8001061B9012324
:1002F000022089F81D3007E00123012089F81D3014
:100300009CF802105A29EFD09CF803105A2902D108
:100310009AF8001061B19CF804105A2910D198F88D
:10032000001069B90123042089F81D3008E000BFDE
:100330000123032089F81D309CF804105A29EED0BF
:100340009CF805105A2902D19EF8001041B15BB902
:1003500002F0B4FC002089F81C0001B0BDE8F08F69
:10036000012089F81D00052040B2411C6FF35E0199
:100370005220012908BF4C2002F006FC40F24C2418
:1003800099F91700C2F2000499F91810276899F931
:100390001920963099F91A30786301F19600B86304
:1003A00002F19600F86303F196003864462002F0EB
:1003B00053FB282089F81A0099F9170099F91810A9
:1003C000236899F919209630586301F196009863D3
:1003D00002F19600D863BE2018644FF4FA7000F062
:1003E0006FFA422002F038FB002089F81C0001B0AF
:1003F000BDE8F08FFEE7000040F27810C2F2000086
:1004000000F0FCB840F23410C2F2000000F0F6B880
:1004100040F2F000C2F2000000F0F0B870470000B7
:10042000EFF3108072B600BFFEE7000010B540F297
:10043000B404C2F2000404F1240003F093FA94F827
:10044000240094F8251094F82620002894F82730EA
:1004500018BF01200029207018BF0121002A6170F7
:1004600018BF0122A270002B18BF012394F82800A6
:10047000E370002818BF012094F82910207100298A
:1004800018BF012194F82A006171002818BF0120CB
:1004900094F82B10A071002918BF012194F82C00AA
:1004A000E171002818BF0120207294F82D0094F803
:1004B0002E1094F82F20002894F8303018BF012017
:1004C0000029607218BF0121002AA17218BF012201
:1004D000E272002B18BF012394F831002373002827
:1004E00018BF0120D4F832106073C4F80E10D4F88D
:1004F000360094F83A10C4F81200A17510BD00003F
:10050000014690F82100022816D10868D1E90FC3EE
:10051000026822F00E020260026822F0010202600C
:10052000012000FA03F2CCF8042081F82100002019
:10053000002281F8202070470420886301200022D7
:1005400081F820207047000080B590F82110022922
:1005500024D10268116821F00E0111602F21136867
:10056000C4F202018A4240F20401C4F2020123F003
:100570000103136016DD3023C4F202039A421DD03A
:100580004423C4F202039A421CD05823C4F202034B
:100590009A421DD14FF4803322E000BF04218163D1
:1005A000012080BD0823C4F202039A420ED01C230E
:1005B000C4F202039A420BD1102311E04FF480736E
:1005C0000EE000BF4FF480530AE000BF012307E0B4
:1005D00001F1680C4FF08073624508BF4FF480133F
:1005E0000B60012180F82110426B002180F820105F
:1005F0000AB190470021084680BD000010B5D0E93F
:100600000FCE0168DCF800300A6823FA0EF35C07AD
:100610002AD512F0040427D00A68920603D40A6887
:1006200022F004020A602F22C4F20202914240F238
:100630000402C4F202025BDD3023C4F202039942D9
:1006400072D04423C4F20203994273D05823C4F2F7
:100650000203994240F07A804FF480231360C16A0C
:10066000002940F098806FE09C0727D512F0020423
:1006700024D00A68920606D40A6822F00A020A60A8
:10068000012280F821202F22C4F20202914240F27E
:100690000402C4F202023BDD3023C4F20203994299
:1006A00060D04423C4F2020399425FD05823C4F2BD
:1006B0000203994260D14FF4003365E01B0743D534
:1006C00012F0080208BF10BD0A6822F00E020A608C
:1006D000012101FA0EF2CCF80420816380F8211088
:1006E000016B0022002980F8202054D12CE000BFAB
:1006F0000823C4F20203994222D01C23C4F202034D
:10070000994223D140231360C16A002943D11BE0E1
:100710000823C4F2020399422CD01C23C4F2020322
:10072000994229D120232FE04FF480631360C16ADE
:1007300089BB09E04FF480431360C16A59BB03E0F1
:1007400004231360C16A31BB10BD00BF02F168040D
:100750004FF08063A14208BF4FF480031360C16A69
:10076000C9B9F1E74FF400730EE000BF4FF4005336
:100770000AE000BF022307E002F168044FF00073B3
:10078000A14208BF4FF400131360816A00220029C0
:1007900080F82020D8D0BDE8104008470146002846
:1007A0004FF0010008BF70472DE9F043D1F800C0B9
:1007B0004FF6F873CBF6FD734CF6CD426344CCF69E
:1007C000CC42A3FB02236FF0030707EA9303002741
:1007D000C4F2020701F10C09C1E90F730223D1E948
:1007E000012E99E87002D1F81C8081F82130DCF8E4
:1007F000003043F6F077BB431A4342EA0E0222432D
:100800002A43324342EA090242EA0802CCF80020B5
:1008100000228A6381F8210081F820200020BDE8B1
:10082000F0437047F0B590F820C0BCF1010F32D012
:100830004FF0010E80F820E090F821C0BCF1010FCC
:1008400026D14FF0020C80F821C04FF0000CC0F808
:1008500038C0D0E900C4C56AC66BDCF80070102C43
:1008600027F00107CCF80070006C0EFA00F0706001
:100870000846CCF8043004BF10460A46CCF80800FD
:10088000CCF80C20DCF8000045B140F00E000DE083
:10089000002180F820100220F0BD00BF20F00400ED
:1008A000CCF80000DCF8000040F00A00CCF80000B2
:1008B000DCF8000040F00100CCF800000020F0BDA2
:1008C000B0B5044600F024F9054640F22000C2F21B
:1008D00000000078611C18BF044400BF00F018F944
:1008E000401BA042FAD3B0BD2DE9F04F82B00E6894
:1008F000002E00F0038141F20042C4F20102042301
:1009000040F2004E904208BF03234FF6FF7CC4F232
:10091000010E009300240123C1F2100C4FF0000AD5
:100920004FF0000949E000BF012704F00C030F223B
:100930009A402BEA020207FA03F34FEA9A051A4398
:1009400046F82520D1F804B040F20C455FEACB22EE
:10095000DEF8082054BF22EA080242EA0802C4F284
:100960000105CEF808202A685FEA8B2354BF22EAEB
:10097000080242EA08022A605FEA8B33DEF80420AC
:1009800054BF22EA080242EA08025FEACB33CEF8FB
:100990000420DEF800204FF0010354BF22EA0802D1
:1009A00042EA0802CEF800200E680AF1010A36FA7F
:1009B0000AF204F1040400F0A18003FA0AF816EA2E
:1009C000080FF1D04E68664512DC122E56D8DFE8CB
:1009D00006F0350B45495555555555555555555501
:1009E0005555554D510000BFD1F80C9046E000BF61
:1009F0004FF6FF72C1F2210296420FDC0022C1F2D3
:100A0000110296421AD00022C1F21202964215D06B
:100A10000022C1F22102964210D02FE00022C1F242
:100A2000220296420AD00022C1F23102964205D03B
:100A30000022C1F23202964220D100BF8A684AB138
:100A4000012A14BFC0F81480C0F810804FF00809C4
:100A500014E000BF4FF0040910E000BFCA6802F1C3
:100A600008090BE04FF0000908E000BFCA6802F176
:100A7000040903E0CA6802F10C0900BF22460646D9
:100A8000BAF1080F24BF203A043637680F25954085
:100A900027EA050509FA02F22A433260CA79D2062A
:100AA0007FF582AF41F21803C4F202031A68AEF573
:100AB0007E7642F001021A601A6802F00102019289
:100AC000019A2AF0030256F802B040F60002C4F27E
:100AD0000102904210D040F60042C4F2010290425E
:100AE0003FF422AF41F20002C4F20102009F9042A3
:100AF00008BF022719E700BF002716E702B0BDE8CC
:100B0000F08F0000002A08BF09040161704700004F
:100B100040F2A830C2F200000068704740F22000A6
:100B200040F2A831C2F20000C2F2000100780A6867
:100B3000104408607047000080B542F20000C4F223
:100B40000200016841F010010160032000F08EF8FE
:100B50000F2000F005F800F027F8002080BD00000D
:100B600070B540F22006C2F2000640F22801327849
:100B7000C2F200014FF47A730968B3FBF2F2044643
:100B8000B1FBF2F1084600F063FB0F2C4FF00105BA
:100B900008D838B94FF0FF3021460022002500F078
:100BA00039F87460284670BD82B041F21800C4F272
:100BB00002000168022241F001010160016801F0B8
:100BC000010101910199416841F080514160406803
:100BD00000F08050009000980420C4F201000168E9
:100BE00062F31A61016002B070470000002848BF3C
:100BF0007047C1B200F01F00012202FA00F04EF26D
:100C00000012CEF2000242EAD10121F00301086095
:100C10007047000010B54EF60C5CCEF2000CDCF80C
:100C20000030C3F3022E8EF00704042C28BF0424E6
:100C3000BEF103034FF0FF3E0EFA04F438BF002369
:100C4000A14399400EFA03F39A43114300F00F02B7
:100C500000F160430901043A03F56443624400284B
:100C600048BF02F10C03197010BD00004EF60C5184
:100C7000CEF200010A684FF6FF031A4060F30A2221
:100C800042F0806040F0FD70086070472DE9F0434D
:100C900081B0002800F0858042F20008C4F202080A
:100CA0000446D8F800000D4600F0070088420CD238
:100CB000D8F8000020F007002843C8F80000D8F852
:100CC000000000F00700A8426BD1206841F204093F
:100CD0008107C4F2020917D5410705D5D9F80010DC
:100CE00041F4E061C9F80010010705D5D9F80010FA
:100CF00041F46051C9F80010D9F80010A26821F041
:100D0000F0011143C9F80010C00741D1D8F8000024
:100D100000F00700A8420CD9D8F8000020F0070026
:100D20002843C8F80000D8F8000000F00700A842E7
:100D300037D12068410707D5D9F80010E26821F4BF
:100D4000E0611143C9F80010000708D5D9F8000088
:100D5000216920F4605040EAC100C9F80000D9F8C8
:100D6000002002F00C00082841F20020C0F27A00B6
:100D700050D143F62E43C2F38341C0F60003595CC1
:100D8000D2033BD440F60010C0F23D00484341E09E
:100D9000606802280AD001282AD159F8041C890366
:100DA00008D4012001B0BDE8F08300BF59F8041C4D
:100DB0008901F6D5D9F8001021F003010843C9F8DC
:100DC0000000FFF7A5FE064641F28837D9F800007B
:100DD000616800F00C00B0EB810F97D0FFF798FE30
:100DE000801BB842F2D9032001B0BDE8F08300BFF8
:100DF00059F8041C8907D4D5DCE700BFD9F80020D6
:100E000043F62C43C2F34042C0F600039A5C4843C9
:100E1000B0FBF2F0D9F8001043F61442C1F303110D
:100E2000C0F60002515C40F2280220FA01F140F2C3
:100E30002400C2F200000068C2F200021160FFF755
:100E40008FFE002001B0BDE8F083000040F22800D2
:100E500041F20401C2F20000C4F202010068096814
:100E600043F62442C1F30221C0F60002515CC8409F
:100E70007047000040F2280041F20401C2F2000075
:100E8000C4F202010068096843F62442C1F3C2219A
:100E9000C0F60002515CC840704700002DE9F041E7
:100EA00082B0002868D00446007841F20006C007EE
:100EB000C4F2020625D0706800F00C0004281BD094
:100EC000706800F00C00082802D17068C00313D4C9
:100ED0006068002800F06881B0F5A02F00F07C81E8
:100EE000B0F5803F00F07C81306820F480303060C5
:100EF000306820F4802076E13068800301D5606896
:100F0000D0B32078800718D5706810F00C0F07D088
:100F1000706800F00C0008286ED17068C0036BD4B4
:100F20003068800702D52069012825D130686169C1
:100F300020F0F80040EAC1003060207800071FD49C
:100F40002078400732D4E56995B1706800F00C0054
:100F5000082840F08F80012D0ED07068216A00F4BF
:100F600080328A4208D1616A00F47010884203D14D
:100F7000002002B0BDE8F081012002B0BDE8F081A0
:100F8000A069002862D00020C4F242200121C0F8EC
:100F90008014FFF7BDFD0546706A800700F18C8064
:100FA000FFF7B6FD401B0228F6D92AE1F06910F0E0
:100FB000805808D1F06940F08050F061F06900F08D
:100FC00080500090009847F20007C4F2000738688C
:100FD000C00529D4386840F480703860FFF798FD68
:100FE000054600BF3868C0051ED4FFF791FD401BC1
:100FF0006428F7D905E100BF2069002840F200000D
:10100000C4F2422000F0828001210160FFF780FDE0
:10101000054600BF306880073FF588AFFFF778FDD1
:10102000401B0228F6D9ECE0E068002800F0808040
:10103000052800F09780012800F09880306A20F0A1
:1010400001003062306A20F0040092E00020C4F217
:1010500042200021C0F88014FFF75AFD054600BF6A
:10106000706A80077FF56CAFFFF752FD401B0228C6
:10107000F6D9C6E00027C4F2422700203866FFF701
:1010800047FD022D05460BD13068800140F1BE803E
:10109000FFF73EFD401B02284FF00300F4D968E73C
:1010A000306880017FF564AFFFF732FD401B0228F6
:1010B0004FF00300F4D95CE740F22800C2F20000D0
:1010C000006844F6D351C1F26201A0FB0101480A55
:1010D000019000BF00BF0198411E002801913FF41C
:1010E0002FAF00BF0198411E002801913FF428AFA7
:1010F00000BF0198411E002801913FF421AF00BFBD
:101100000198411E00280191E4D119E700210160F6
:10111000FFF7FEFC054600BF306880077FF50DAF86
:10112000FFF7F6FC401B02284FF00300F4D920E73C
:10113000306A20F001003062306A20F00400306232
:10114000FFF7E6FC054641F2883700BF306A8007AA
:1011500020D5FFF7DDFC401BB8424FF00300F5D966
:1011600007E700BF306A40F004003062306A40F0A8
:1011700001003062FFF7CCFC054641F2883700BF22
:10118000306A800706D4FFF7C3FC401BB842F7D98A
:1011900037E000BFB8F1000F7FF4D5AEF06920F062
:1011A0008050F061CFE600BF306820F480303060BE
:1011B000306820F480203060FFF7AAFC054600BFAD
:1011C000306880037FF59DAEFFF7A2FC401B6428CA
:1011D0004FF00300F4D9CCE6306840F48020306052
:1011E000306840F480303060FFF792FC054600BF65
:1011F000306880033FF585AEFFF78AFC401B64280A
:10120000F6D9032002B0BDE8F08100BF206AB0F536
:10121000803F05D17168A26821F4003111437160EB
:101220007168626A21F474111143084370600120EF
:101230003866FFF76DFC0446306880013FF598AED4
:10124000FFF766FC001B02284FF00300F4D990E67C
:10125000411E0020B0EB116F1CBF012070474EF201
:101260001002CEF2000251604EF62351CEF2000180
:10127000F0230B70072190601160704770470000E9
:101280007047000010B590F83C20012A4FF0020290
:1012900033D080F83D200268D2F804E0D2F808C0CC
:1012A0000C682EF07003234340F2FF74C4F2000474
:1012B000A24253600ADCB2F1804F13D040F20043E7
:1012C000C4F200039A420DD011E000BF42F6004381
:1012D000C4F201039A4205D040F60003C4F20003B1
:1012E0009A4204D149682CF080031943916001218E
:1012F000002280F83D1080F83C20104610BD000010
:10130000002804BF0120704710B5044690F83D0046
:1013100028B9002084F83C00204600F06FF8022035
:1013200084F83D00206840F2FF730268C4F20003B5
:1013300042F6004C9842C4F2010C15DCB0F1804F2B
:101340001AD040F20041C4F20001884214D0984201
:1013500018DCB0F1804F1DD040F20041C4F2000112
:10136000884217D01AE000BF604505D040F6000162
:10137000C4F200018842EAD1A16822F070020A4357
:101380009842E6DD604505D040F60001C4F2000158
:10139000884203D1216922F440720A43A36922F0F2
:1013A0008001D4F804E0E268194360450160C2623C
:1013B000C0F828E002D16169CCF830100121416108
:1013C0000269D20703D0026922F001020261002003
:1013D00084F8461084F83E1084F83F1084F84010DA
:1013E00084F8411084F8421084F8431084F84410C3
:1013F00084F8451084F83D1010BD000080B582B01F
:101400000068B0F1804F1CBF02B080BD41F21C00EB
:10141000C4F202000168002241F00101016000688D
:10142000012100F00100019001981C20FFF7F2FB60
:101430001C2002B0BDE88040FFF7D8BB90F83D10FB
:1014400001291CBF01207047022180F83D1000686F
:1014500040F2FF72C168C4F20002904241F0010103
:10146000C16009DCB0F1804F12D040F20041C4F2FB
:10147000000188420CD012E042F60041C4F20101A2
:10148000884205D040F60001C4F20001884206D12E
:10149000816801F00701062904BF00207047016838
:1014A00041F00101016000207047000080B590F814
:1014B0003C20012A4FF0020200F0C28080F83D205B
:1014C000D0F800C04FF67772DCF8083023EA020249
:1014D000CCF808200B684F2B28DC1F2B44DD202B79
:1014E00045D0302B43D0402B40F0AC80D1F804E005
:1014F000C968DCF82030DCF8202022F00102CCF8AA
:101500002020DCF8182022F0F00242EA011123F03A
:101510000A0242EA0E02CCF81810CCF82020DCF8BF
:10152000081041F0470121F0300180E06F2B27DDEA
:10153000B3F5005F48D0B3F5805F7AD0702B40F0F0
:101540008180D1E901E3C968DCF8082043EA0E0391
:1015500022F47F4243EA01211143CCF80810DCF861
:10156000081041F0770162E00BB1102B6AD1DCF872
:10157000081021F07001194341F0070157E000BF46
:10158000502B35D0602B5DD1D1F804E0C968DCF870
:101590002030DCF8202022F01002CCF82020DCF8EB
:1015A000182022F4704242EA013123F0A00242EAFC
:1015B0000E12CCF81810CCF82020DCF8081041F0FE
:1015C000670121F0100132E0D1E901E3C968DCF8DC
:1015D000082043EA0E0322F47F4243EA012111432B
:1015E000CCF80810DCF8081041F480411FE000BF7F
:1015F000D1F804E0C968DCF82030DCF8202022F0C3
:101600000102CCF82020DCF8182022F0F00242EA97
:10161000011123F00A0242EA0E02CCF81810CCF8AD
:101620002020DCF8081041F0570121F02001CCF80F
:1016300008100022012180F83D10002180F83C10A4
:10164000104680BD0122F5E77047000070B50446E2
:101650000068C5680669B10716D515F0020113D0F8
:101660006FF002010161012121778069800703D0B9
:101670002046FFF7E9FF05E0204600F08FF82046FE
:1016800000F040FA00202077700719D515F004000B
:1016900016D020686FF00401016102212177806972
:1016A00010F4407F04D02046FFF7CEFF06E000BFD5
:1016B000204600F073F8204600F024FA002020773E
:1016C000300717D515F0080014D020686FF0080116
:1016D000016104212177C069800703D02046FFF70C
:1016E000B3FF05E0204600F059F8204600F00AFA62
:1016F00000202077F00619D515F0100016D02068CC
:101700006FF01001016108212177C06910F4407F5A
:1017100004D02046FFF798FF06E000BF204600F007
:101720003DF8204600F0EEF900202077F00718BFC2
:1017300015F0010002D1300609D412E020686FF0E4
:1017400001010161204600F04FFA300609D515F07D
:10175000800006D020686FF0800101612046FFF70D
:101760008DFD700609D515F0400006D020686FF099
:1017700040010161204600F045FAB00658BF70BD37
:1017800015F0200008D021686FF0200220460A6181
:10179000BDE87040FFF774BD70BD000070470000E9
:1017A0002DE9F04390F83C30012B04BF0220BDE846
:1017B000F0834FEAB202032A3CD8DFE802F0034389
:1017C00081BD00BF036842F600461D6A1A6AC4F272
:1017D000010622F001021A621A465C6852F818CF1C
:1017E000B3428E68D1F800E025F0020545EA06050F
:1017F0000CD1CE68D1E9057824F4407425F00C05AD
:1018000026F004063C43354344EA08042CF07307F1
:1018100047EA0E075C609F614F6809695F631D625C
:101820009F6947F008079F619F6927F004079F6140
:10183000B2E000BF0121002280F83C200846BDE84C
:10184000F08300BF036842F600461D6A1A6AC4F2BC
:10185000010622F010021A621A46D3F804C052F8A8
:10186000184FB3428E68D1F800E025F0200545EA14
:10187000061510D1CE68D1E9058725F0C0096FF0B3
:10188000400505EA06152CF4406647EA080745EAD4
:10189000090546EA870C24F4E64444EA0E27C3F817
:1018A00004C09F614F6809699F631D629F6947F487
:1018B00000679F619F6927F480679F616BE000BFAD
:1018C000036842F600461D6A1A6AC4F2010622F451
:1018D00080721A621A46D3F804C052F81CEFB34261
:1018E0008E680C6825F4007545EA062511D1CE688E
:1018F000D1E9058725F44069360240F2FF4526EA22
:1019000005052CF4405647EA080745EA090546EA6A
:10191000071C2EF073072743C3F804C0DF614F682C
:101920000969DF631D62DF6947F00807DF61DF696E
:1019300027F00407DF612FE0036842F60047D3F881
:1019400020C01A6AC4F2010722F480521A621A46B1
:101950005C6852F81C5FD1F800E08E68BB4204D18D
:101960004F6924F4804444EA87142CF4005747EA72
:10197000063725F4E64646EA0E265C60DE614E68D0
:1019800009691E641F62DF6947F40067DF61DF6970
:1019900027F48067DF610902136819431160002191
:1019A000002280F83C200846BDE8F083002804BFF0
:1019B0000120704710B5044690F83D0028B900207A
:1019C00084F83C00204600F06FF8022084F83D00C7
:1019D000206840F2FF730268C4F2000342F6004C34
:1019E0009842C4F2010C15DCB0F1804F1AD040F2DD
:1019F0000041C4F20001884214D0984218DCB0F1D2
:101A0000804F1DD040F20041C4F20001884217D03F
:101A10001AE000BF604505D040F60001C4F20001A5
:101A20008842EAD1A16822F070020A439842E6DDBA
:101A3000604505D040F60001C4F20001884203D1A0
:101A4000216922F440720A43A36922F08001D4F88C
:101A500004E0E268194360450160C262C0F828E012
:101A600002D16169CCF83010012141610269D207CD
:101A700003D0026922F001020261002084F84610BE
:101A800084F83E1084F83F1084F8401084F8411028
:101A900084F8421084F8431084F8441084F8451008
:101AA00084F83D1010BD000082B0006840F60001CF
:101AB000C4F20001884215D040F20041C4F2000196
:101AC00088421CD141F21C00C4F20200016841F0BE
:101AD00002010160006800F002000190019802B06C
:101AE000704700BF41F21C00C4F20200016841F0DF
:101AF00004010160006800F004000090009802B04A
:101B0000704700007047000041B1082910D0042937
:101B100014BF00F1410200F13F020BE090F83E20BB
:101B2000012A1CBF01207047022280F83E2013E0EA
:101B300000F140021278012A1CBF012070470222E6
:101B4000082907D0042914BF80F8412080F83F20DD
:101B500002E000BF80F84020006801F01F01012270
:101B6000036A8A4023EA02010162036A42F64441A1
:101B7000C4F201011A43A1F14403984202620FD05A
:101B800040F2FF71C4F20001884213DCB0F1804FD3
:101B90001CD040F20041C4F20001884216D01CE083
:101BA0000A6842F400420A6040F2FF71C4F2000188
:101BB0008842EBDD42F60041C4F20101884205D0C3
:101BC00040F60001C4F20001884206D1816801F0AC
:101BD0000701062904BF00207047016841F0010198
:101BE000016000207047000040F2BC11C2F2000109
:101BF000884218BF704780B5FEF718FCBDE88040EA
:101C000001F026BA704700007047000070470000DE
:101C1000B0B582B0044600680168C368426901F04B
:101C20002F05202D03F0200506D12DB1204602B04E
:101C3000BDE8B04001F0D4BC5FEA017C1EBF02F0F9
:101C4000010E03F4907212EB0E0253D1226B012AA3
:101C500005D111F0100218BF13F0100236D10A0698
:101C600022D513F080021FD094F8411021293FD1D2
:101C7000A168B1F5805F03D12169002900F070826D
:101C8000216A4A1C226209784160E18C01390A0408
:101C9000E1842DD1C16821F08001C160C16841F0AB
:101CA0004001C16002B0B0BD490621D513F040012A
:101CB0001ED0C16821F04001C1602021204684F877
:101CC000411002B0BDE8B04000F060BC00210191BD
:101CD000016801914168019101994069400613D45E
:101CE000A08DE18DE28D002A18BF884240F0BA81B4
:101CF00002B0B0BDCA0718BF13F4807240F0B680BE
:101D00004A0700F1B980BEE0E06B016849688AB219
:101D1000002AEDD0A38D9A42EAD2E185806920287D
:101D200000F09C80206850E8030F216820F4807048
:101D300041E80302DAB1206850E8030F216820F47B
:101D4000807041E8030292B1206850E8030F2168D7
:101D500020F4807041E803024AB1206850E8030F84
:101D6000216820F4807041E80302002ADAD120685B
:101D700050E8050F216820F0010041E80502DAB1C2
:101D8000206850E8050F216820F0010041E80502B5
:101D900092B1206850E8050F216820F0010041E869
:101DA00005024AB1206850E8050F216820F00100C3
:101DB00041E80502002ADAD1206850E8050F2168C1
:101DC00020F0400041E80502DAB1206850E8050F34
:101DD000216820F0400041E8050292B1206850E8F7
:101DE000050F216820F0400041E805024AB1206853
:101DF00050E8050F216820F0400041E80502002A64
:101E0000DAD1202084F8420000202063206850E8C6
:101E1000030F216820F0100041E80302DAB12068C6
:101E200050E8030F216820F0100041E8030292B14E
:101E3000206850E8030F216820F0100041E80302F9
:101E40004AB1206850E8030F216820F0100041E8F3
:101E50000302002ADAD1E06BFEF752FB0220606336
:101E6000A08DE18D401A81B2204674E1626C42F08F
:101E7000010262644A0706D5BEF1000F03D0626C0E
:101E800042F0020262648A0706D5BEF1000F03D059
:101E9000626C42F004026264BCF1000F09D545EAAD
:101EA0000E02B2FA82F2520903D1626C42F00802C9
:101EB0006264626C002A3FF41BAF11F0200118BF6E
:101EC000002D03D0204601F08BFB20684069616C37
:101ED00000F0400001F00801401800F0B58000BF9C
:101EE000206850E8030F216820F4907041E8030255
:101EF000BAB3206850E8030F216820F4907041E8DD
:101F0000030272B3206850E8030F216820F4907038
:101F100041E803022AB3206850E8030F216820F447
:101F2000907041E80302002ADAD11AE0206850E8F4
:101F3000050F216820F0010041E80502DAB12068B0
:101F400050E8050F216820F0010041E8050292B138
:101F5000206850E8050F216820F0010041E80502E3
:101F60004AB1206850E8050F216820F0010041E8DF
:101F70000502002ADAD1206B012824D1206850E81C
:101F8000030F216820F0100041E80302DAB1206855
:101F900050E8030F216820F0100041E8030292B1DD
:101FA000206850E8030F216820F0100041E8030288
:101FB0004AB1206850E8030F216820F0100041E882
:101FC0000302002ADAD1202084F842000020206396
:101FD0002068406940063FD5206850E8050F216819
:101FE00020F0400041E80502DAB1206850E8050F12
:101FF000216820F0400041E8050292B1206850E8D5
:10200000050F216820F0400041E805024AB1206830
:1020100050E8050F216820F0400041E80502002A41
:10202000DAD1E06BC0B143F2E121C0F600014163B7
:10203000FEF78AFA00283FF45BAEE06B416B02B01A
:10204000BDE8B040084700BF2046FFF7DFFD002095
:10205000606402B0B0BD00BF204602B0BDE8B04031
:10206000FFF7D4BD401A216851E8031F226821F40C
:10207000907142E80313DBB1216851E8031F226825
:1020800021F4907142E8031393B1216851E8031FD2
:10209000226821F4907142E803134BB1216851E8A2
:1020A000031F226821F4907142E80313002BDAD158
:1020B000216851E8051F226821F0010142E805135B
:1020C000DBB1216851E8051F226821F0010142E8D7
:1020D000051393B1216851E8051F226821F0010121
:1020E00042E805134BB1216851E8051F226821F031
:1020F000010142E80513002BDAD1202184F84210B7
:1021000000212163216851E8031F226821F010019A
:1021100042E80313DBB1216851E8031F226821F074
:10212000100142E8031393B1216851E8031F2268AC
:1021300021F0100142E803134BB1216851E8031F5D
:10214000226821F0100142E80313002BDAD10222A9
:1021500081B22046626302B0BDE8B040FFF754BDD3
:10216000216A31F8022B6FF35F22426021628CE515
:10217000002804BF0120704710B5044690F84100C4
:1021800028B9002084F84000204600F063F824209D
:1021900084F841002068D4E90212C36823F4005394
:1021A000C360036923F440531A430261D4E9042352
:1021B0001143C268194341F20C639A431143C16051
:1021C0004169A26921F44071114343F60002C4F24F
:1021D00001029042416103D0FEF738FE02E000BFE9
:1021E000FEF748FE6268192148439100B0FBF1F008
:1021F00048F21F51C5F2EB11A0FB01235A094FF61B
:102200009C73C0F6FF7302FB0300322303EB001044
:10221000A0FB0101F02303EA5113206803EB021233
:10222000C1F3431111448160016921F490410161BE
:10223000416921F02A014161C16841F40051C16046
:1022400000202021606484F8411084F8421060630B
:1022500010BD00002DE9F04186B00446006844F648
:102260000001C4F20001002788420597CDE90377F9
:1022700002975DD043F60001C4F20101884240F0AC
:10228000BC8041F21800C4F20200016840F600056B
:1022900041F4804101600168C4F2010501F480410C
:1022A00001910199016802AE41F0040101600068EA
:1022B000314600F00400019001984FF40070029044
:1022C00002200390032005902846FEF70DFB4FF4F3
:1022D00080600290002728463146CDE90377FEF75B
:1022E00003FB1C20C4F2020040F2F0053C30C2F2B5
:1022F000000580212022C5E900072846C5E90271B2
:10230000C5E90477C5E90627FEF748FA002818BF93
:10231000FEF786F8252002210022E5636C62FEF7B5
:1023200079FC2520FEF762FC06B0BDE8F08100BF15
:1023300041F21800C4F20200416802AE41F480216B
:102340004160416840F21C0801F48021019101992B
:102350000168C4F2020841F00801016000683146DA
:1023600000F00800019001984FF480600290022074
:1023700003900320059040F60000C4F2010000F530
:1023800080652846FEF7B0FA4FF40060CDE90207F9
:10239000284631460497FEF7A7FA40F2341508F1B3
:1023A0001400C2F2000580262021C5E90007284656
:1023B000C5E90276C5E90477C5E90617FEF7EEF927
:1023C000002818BFFEF72CF8E5636C6240F2781520
:1023D000C2F2000510200021C5E900802846C5E9A9
:1023E0000216C5E90411C5E90611FEF7D7F9002860
:1023F00018BFFEF715F8A5636C6206B0BDE8F08162
:1024000070B582B0044690F8420020280AD11346E5
:102410000A4600294FF0010018BF002B06D102B078
:1024200070BD00BF022002B070BD00BF0025222099
:102430002563A262A385656484F842002168E06B8D
:1024400043F2694C43F2C95E43F2ED26C0F6000C3C
:10245000C0F6000EC0F600060431C0E90ACEC0E99D
:102460000C65FEF7DFF9019520680168019140686D
:1024700001900198206928B3206850E8030F216873
:1024800040F4807041E80302E2B1206850E8030F95
:10249000216840F4807041E803029AB1206850E856
:1024A000030F216840F4807041E8030252B12068B4
:1024B00050E8030F216840F4807041E80302002ACD
:1024C000DAD100BF206850E8050F216840F0010014
:1024D00041E80502E2B1206850E8050F216840F0AC
:1024E000010041E805029AB1206850E8050F216813
:1024F00040F0010041E8050252B1206850E8050FA4
:10250000216840F0010041E80502002ADAD100BF4D
:10251000206850E8050F216840F0400041E80502BE
:10252000DAB1206850E8050F216840F0400041E82A
:10253000050292B1206850E8050F216840F0400084
:1025400041E805024AB1206850E8050F216840F0D3
:10255000400041E80502002ADAD1002002B070BD37
:1025600040F2DC21C2F20001884218BF704740F2FD
:10257000A430C2F20000017821B90121017000F0FD
:10258000A3BC00BF70470000704700007047000008
:10259000FEE7000080B582B041F21400C4F20200F0
:1025A0000168002241F0010101600068052100F08E
:1025B0000100019001980C20FEF72CFB0C20FEF787
:1025C00015FB0D2003210022FEF724FB0D20FEF752
:1025D0000DFB0F2004210022FEF71CFB0F2002B090
:1025E000BDE88040FEF702BB2DE9F04784B041F220
:1025F0001800C4F20200016840F6000A41F0100120
:1026000001600168C4F2010A01F010010091009913
:1026100001680AF5006541F02001016001680022AF
:1026200001F020010091009901684FF4604641F0EB
:102630000401016001684FF0000901F004010091FC
:102640000099016841F00801016000684FF46041A1
:1026500000F00800009000982846FEF753FA504614
:102660001F2100224FF01F08FEF74CFA00966E461D
:102670000127022428463146CDE901790394FEF76B
:1026800033F950463146CDE90087CDE90294FEF793
:102690002BF904B0BDE8F08780B586B040F2BC10DD
:1026A0000021C2F200004FF0804240F2CF234FF0F1
:1026B000090C0591CDE90311CDE90011C0E9002312
:1026C000C0E9021C01618161FEF71AFE002818BFF3
:1026D000FDF7A6FE4FF48050029040F2BC10C2F20B
:1026E000000002A9FEF7E2FE002818BFFDF798FEE1
:1026F00040F2BC10C2F200006946FEF7C3FD00289C
:1027000018BFFDF78DFE06B080BD0000B0B590B0DB
:1027100040F2042040F200450021C2F20000632391
:10272000C4F20005CDE90811CDE90611CDE9041187
:1027300040F60F62C0E9021301618021C0E9005236
:102740008161FFF733F9002818BFFDF769FE40F2F9
:102750000420C2F2000008A9FEF794FD002818BF6B
:10276000FDF75EFE60200190312002900020039072
:10277000059040F20420C2F2000001A90022FFF7F8
:102780000FF8002818BFFDF74BFE40F20420C2F2FC
:10279000000001A90422FFF703F8002818BFFDF785
:1027A0003FFE0020029040F20420C2F2000001A986
:1027B0000822FEF7F5FF002818BFFDF731FE40F2B2
:1027C0000424C2F2000401A920460C22FEF7E8FF0F
:1027D000002818BFFDF724FE206840F60001C4F26F
:1027E000000188424FF00001CDE90E11CDE90C1136
:1027F00026D0A8423DD141F21800C4F2020001687F
:10280000022441F004010160016801F004010B9110
:102810000B99016841F00801016000680CA900F003
:1028200008000B900B98C0200C9005F582300D9499
:102830000F94FEF759F80320CDE90C0412E000BF15
:1028400041F21800C4F20200016841F00801016081
:10285000006800F008000B900B984FF470700C901B
:1028600002200D9002200F9005F584300CA9FEF790
:102870003BF810B0B0BD0000B0B590B040F24C20B5
:1028800040F600050021C2F2000040F2CF73C4F20E
:102890000005CDE90811CDE90611CDE9041140F29A
:1028A000CF22C0E9021301618021C0E90052816199
:1028B000FFF77CF8002818BFFDF7B2FD40F24C206E
:1028C000C2F2000008A9FEF7DDFC002818BFFDF7E2
:1028D000A7FD602001900020CDE90200059040F2A4
:1028E0004C20C2F2000001A90022FEF759FF002887
:1028F00018BFFDF795FD40F24C20C2F2000001A97F
:102900000422FEF74DFF002818BFFDF789FD40F2B5
:102910004C20C2F2000001A90822FEF741FF002866
:1029200018BFFDF77DFD40F24C24C2F2000401A95E
:1029300020460C22FEF734FF002818BFFDF770FD7B
:1029400020680021A842CDE90E110D910C9129D0EB
:1029500040F20041C4F2000188423CD141F218002B
:10296000C4F202000168022441F004010160016820
:1029700001F004010B910B99016841F0080101601D
:1029800000680CA900F008000B900B98C0200C9078
:1029900005F580300D940F94FDF7A6FF0320CDE9D7
:1029A0000C0411E041F21800C4F20200016841F089
:1029B00008010160006800F008000B900B984FF4CC
:1029C00070700C9002200D9002200F9005F582305F
:1029D0000CA9FDF789FF10B0B0BD000080B540F232
:1029E000942043F60001C2F20000C4F2010100236A
:1029F0004FF00C0C4FF4165280E80E00C0E9033380
:102A0000C0E905C3C361FFF7B3FB002808BF80BD61
:102A1000BDE88040FDF704BD80B540F2DC2044F6FF
:102A20000001C2F20000C4F2000100234FF00C0CC0
:102A30004FF4E13280E80E00C0E90333C0E905C37A
:102A4000C361FFF795FB002808BF80BDBDE880404B
:102A5000FDF7E6BCFEE700002DE9F04746284FF001
:102A6000000807D0422818BFBDE8F08700270126DC
:102A700002E000BF0127002640F60004C4F2010472
:102A800004F5006528464FF400513246FEF73AF847
:102A900028464FF480413A46FEF734F840F20429C4
:102AA000C2F20009D9F800004FF0640AC0F834A05F
:102AB00028464FF400413A46FEF724F8204601210B
:102AC0003246FEF71FF8D9F800000221C0F838A0FE
:102AD00020463246FEF716F8204604213A46FEF715
:102AE00011F8D9F800000821C0F83CA020463A4669
:102AF000FEF708F8204610213246FEF703F8D9F811
:102B00000000C0F840A04FF4FA70FDF7D9FE284647
:102B10004FF400510022FDF7F5FF28464FF48041A5
:102B20000022FDF7EFFFD9F800004FF40041C0F894
:102B3000348028460022FDF7E5FF204601210022CF
:102B4000FDF7E0FFD9F800000221C0F838802046E8
:102B50000022FDF7D7FF204604210022FDF7D2FF17
:102B6000D9F800000821C0F83C8020460022FDF77B
:102B7000C9FF204610210022FDF7C4FFD9F800004C
:102B8000C0F84080BDE8F0872DE9F0474C284FF0B1
:102B9000000807D0522818BFBDE8F087012700269B
:102BA00002E000BF0126002740F60004C4F2010441
:102BB00004F5006528464FF400513246FDF7A2FFA8
:102BC00028464FF480413A46FDF79CFF40F2042925
:102BD000C2F20009D9F800004FF0640AC0F834A02E
:102BE00028464FF400413246FDF78CFF2046012174
:102BF0003A46FDF787FFD9F800000221C0F838A057
:102C000020463A46FDF77EFF204604213246FDF776
:102C100079FFD9F800000821C0F83CA020463A46C8
:102C2000FDF770FF204610213246FDF76BFFD9F803
:102C30000000C0F840A04FF4FA70FDF741FE2846AE
:102C40004FF400510022FDF75DFF28464FF480410C
:102C50000022FDF757FFD9F800004FF40041C0F8FB
:102C6000348028460022FDF74DFF20460121002236
:102C7000FDF748FFD9F800000221C0F8388020464F
:102C80000022FDF73FFF204604210022FDF73AFF16
:102C9000D9F800000821C0F83C8020460022FDF74A
:102CA00031FF204610210022FDF72CFFD9F800004B
:102CB000C0F84080BDE8F087FEE700002DE9F04154
:102CC00040F20000C2F20000027840F2B408C2F202
:102CD00000080021592A88F81E1023D04778592F60
:102CE0002AD08678592E31D0C578592D38D003791D
:102CF000592B3FD090F805C0BCF1590F46D098F839
:102D00000E40012C4DD1582A50D182681278B2FA67
:102D100082F46409002A18BF4FF0FF32582F49D0BF
:102D200051E000BF81680978002904BF012188F8BB
:102D30001D104778592FD4D1C1680978002904BFE4
:102D4000012188F81D108678592ECDD101690978A6
:102D5000002904BF012188F81D10C578592DC6D15E
:102D600041690978002904BF012188F81D10037901
:102D7000592BBFD181690978002904BF012188F846
:102D80001D1090F805C0BCF1590FB8D1C469247862
:102D9000002C04BF012488F81D4098F80E40012C37
:102DA000B1D0BDE8F04100F027BD00BF0024FF22F4
:102DB000582F08D1C7683F78B7FA87F149090C4303
:102DC000002F08BF0122582E14D0582D1DD0582B8B
:102DD00026D0BCF1580F2FD1C0690078B0FA80F12D
:102DE0004909002808BF052251EA040028D1BDE89E
:102DF000F08100BF01690978B1FA81F77F093C438E
:102E0000002908BF0222582DE1D141690978B1FAA1
:102E100081F77F093C43002908BF0322582BD8D1F2
:102E200081690978B1FA81F35B091C43002908BF65
:102E30000422BCF1580FCFD0002C08BFBDE8F081B0
:102E400050B2411C6FF35E015220012908BF4C2093
:102E5000FFF79AFE40F24C2498F91700C2F20004E2
:102E600098F91810276898F91920963098F91A30AF
:102E7000786301F19600B86302F19600F86303F1FC
:102E8000960038644620FFF7E7FD282088F81A00EE
:102E900098F9170098F91810236898F919209630B6
:102EA000586301F19600986302F19600D863BE2042
:102EB00018644FF4FA70FDF703FD4220BDE8F041BD
:102EC000FFF7CABD704700002DE9F04140F2B40E93
:102ED000C2F2000E9EF81B0010B1BDE8F08100BFE9
:102EE000BEF8202040F2000C7F2AC2F2000C30D83D
:102EF00040F22433C2F20003985C4B2878D190B2A0
:102F0000185C511C8CF8000088B2185C911C8CF87D
:102F1000010088B2185CD11C8CF8020088B2185CE1
:102F2000111D8CF80300501D80B2185C89B2595CE9
:102F30008CF80500901D8EF8220002F108008CF834
:102F4000041081B2AEF82000D01D77298EF823003E
:102F500002D30020AEF820009CF800809CF80110FD
:102F6000A8F15A04A1F15A059CF80230B4FA84F48D
:102F7000B5FA85F564096D0944EA4504A3F15A05DB
:102F80009CF80300B5FA85F56D0944EA8505A0F1C2
:102F90005A04B4FA84F466099CF8044045EAC6066B
:102FA000A4F15A05B5FA85F56F099CF8055046EA73
:102FB0000716A5F15A07B7FA87F77F0946EA4716B9
:102FC0009EF822709EF8232007EB870702EB47024A
:102FD000103AF6B2D2B2964218BFBDE8F0819EF820
:102FE0000020EAB101208EF81B00BDE8F08100BF8F
:102FF00090B27F28ADD099184C784B2C22D07E28E7
:10300000A7D08C784B2C1FD07D28A2D0CC784B2C0D
:103010001CD07C289DD0087904324B28E8D16EE77B
:103020008CF800108CF801808CF802008CF80330CA
:103030008CF804508CF8054001208EF81B00BDE888
:10304000F08100BF01325AE7023258E7033256E7F7
:1030500070B540F2B400C2F20000417A51B1017F74
:10306000002918BF70BD01210177BDE87040FDF750
:10307000E9B800BF017A29B10021A0F81710417604
:1030800031E000BF90F807E090F913C0C47A037DE7
:10309000417D0022BEF1000F80F817C00376417613
:1030A00008BF2822002C827618BF0376047B5BB20F
:1030B000002C18BF4176447B4FFA81FE002C40F271
:1030C0004C241CBF827D8276C2F2000424680CF17D
:1030D0009601616303F19601A1630EF19601E1632C
:1030E00051B29631216490F9101090F9112090F9A5
:1030F0001200531803EB000C521A0FFA8CF4A2EBD7
:10310000000E0FFA8EF102441B1A8CEAE430A0EB99
:10311000E4308EEAE134A4EBE13115B200B209B239
:103120008142C8BF084682EAE531A1EBE5311EB213
:1031300009B28142C8BF084683EAE631A1EBE63115
:1031400009B28142C8BF084665280FD3642180B206
:103150000CFB01F696FBF0FC0EFB01F64A435943CB
:1031600096FBF0FE92FBF0F291FBF0F3CCF1000045
:1031700052420FFA8EF11BB200B212B2BDE870409B
:1031800000F002B8704700002DE9F04381B040F62E
:103190000009C4F2010909F50065984616460F4674
:1031A0000446012828464FF4005107DB0122FDF7B1
:1031B000A9FC28464FF4804100220AE00022FDF7D6
:1031C000A1FC28464FF48041B4F1FF3F60DD0022AE
:1031D0000024FDF797FC20B240F20424C2F2000460
:1031E0002168012F486309F500604FF4004107DBB7
:1031F0000122FDF787FC4846012100220AE000BFBA
:103200000022FDF77FFC48460121B7F1FF3F45DD75
:1032100000220027FDF776FC216838B2012E886372
:1032200048464FF0020107DB0122FDF76BFC4846E0
:10323000042100220AE000BF0022FDF763FC48469B
:103240000421B6F1FF3F2FDD00220026FDF75AFCD6
:10325000216830B2B8F1010FC86348464FF0080149
:1032600008DB0122FDF74EFC484610210022FDF745
:1032700049FC24E00022FDF745FC48461021B8F146
:10328000FF3F17DD00224FF00008FDF73BFC16E082
:103290000122FDF737FC64429DE700BF0122FDF7E4
:1032A00031FC7F42B8E700BF0122FDF72BFC7642DC
:1032B000CEE700BF0122FDF725FCC8F10008206819
:1032C0000FFA88F1016401B0BDE8F083FDF726BC78
:1032D0007047000040F2BC10C2F20000FEF7B6B921
:1032E000406A0021C185C184FEF790BC406A016834
:1032F0004A6990F84130212B2DD112F080022AD05A
:103300000021C184016851E8031F026821F0C00157
:1033100042E80313DBB1016851E8031F026821F0A2
:10332000C00142E8031393B1016851E8031F02682A
:1033300021F0C00142E803134BB1016851E8031FBB
:10334000026821F0C00142E80313002BDAD12021EA
:1033500080F841100168496990F84220222A40F023
:103360007D8011F0400179D00021C185016851E8CC
:10337000031F026821F4907142E80313BBB3016894
:1033800051E8031F026821F4907142E8031373B3FC
:10339000016851E8031F026821F4907142E80313A9
:1033A0002BB3016851E8031F026821F4907142E8D1
:1033B0000313002BDAD11AE0016851E8051F0268F7
:1033C00021F0010142E80513DBB1016851E8051F56
:1033D000026821F0010142E8051393B1016851E848
:1033E000051F026821F0010142E805134BB1016895
:1033F00051E8051F026821F0010142E80513002B86
:10340000DAD1016B012924D1016851E8031F026858
:1034100021F0100142E80313DBB1016851E8031FFA
:10342000026821F0100142E8031393B1016851E8EA
:10343000031F026821F0100142E803134BB1016839
:1034400051E8031F026821F0100142E80313002B2A
:10345000DAD1202180F8421000210163416C41F053
:1034600010014164FEF7D2BB0168406A0968890611
:1034700000F19F800021C185016851E8031F0268A7
:1034800021F4807142E80313E3B1016851E8031F9E
:10349000026821F4807142E803139BB1016851E88E
:1034A000031F026821F4807142E8031353B10168DD
:1034B00051E8031F026821F4807142E80313002BD6
:1034C000DAD100BF016851E8051F026821F001014F
:1034D00042E80513BBB3016851E8051F026821F0FB
:1034E000010142E8051373B3016851E8051F026842
:1034F00021F0010142E805132BB3016851E8051FD3
:10350000026821F0010142E80513002BDAD11AE02C
:10351000016851E8051F026821F0400142E80513E7
:10352000DBB1016851E8051F026821F0400142E863
:10353000051393B1016851E8051F026821F04001AD
:1035400042E805134BB1016851E8051F026821F0FC
:10355000400142E80513002BDAD1202180F8421007
:10356000016B012925D100BF016851E8031F0268E2
:1035700021F0100142E80313DBB1016851E8031F99
:10358000026821F0100142E8031393B1016851E889
:10359000031F026821F0100142E803134BB10168D8
:1035A00051E8031F026821F0100142E80313002BC9
:1035B000DAD100214163016B012918BFFEF7D0BFAA
:1035C000818DFEF721BB0000406A01214163016B40
:1035D000012918BFFEF7D8BF818D4908FEF714BB3B
:1035E00081B090F84210222921D183680246B3F5B8
:1035F000805F09D152F8281F52F8183C002B63D085
:1036000003685B680AE000BF52F8281F13B903691A
:10361000002BF5D003685B6803F07F030B70116823
:1036200001311160C18D01390A04C18502D001B098
:10363000704700BF0168CA6822F02002CA60CA68E9
:1036400022F48072CA604A6922F001024A61202194
:1036500080F8421000214163026B012A3CD10163D2
:10366000016851E8031F026821F0100142E80313CA
:10367000DBB1016851E8031F026821F0100142E844
:10368000031393B1016851E8031F026821F0100190
:1036900042E803134BB1016851E8031F026821F0AF
:1036A000100142E80313002BDAD101680A68D20640
:1036B00006D5002200920A6800924968009100999C
:1036C000818D01B0FEF7A0BA026852686FF35F22E5
:1036D00021F8022B8162A5E701B0FEF741BF00008F
:1036E00040F29420C2F20000FEF792BAFEE700001A
:1036F00090B0FDF721FA00240120CDE90B44CDE97B
:10370000094406900A904FF4E0104FF480310225EE
:103710000F9006A8CDE90714CDE90D51FDF7BEFBCA
:1037200020B1EFF3108072B6FEE700BF0F20CDE9A5
:1037300001054FF48060CDE9040401A8022103943F
:10374000FDF7A4FA20B1EFF3108072B6FEE700BFD8
:10375000FEF74AFFFEF71EFFFFF740F9FEF7D6FF20
:10376000FFF75AF9FEF798FFFFF786F840F20424B6
:10377000C2F2000420460021FEF7C6F920460421CB
:10378000FEF7C2F920460821FEF7BEF920460C21BB
:10379000FEF7BAF940F24C24C2F2000420460021A0
:1037A000FEF7B2F920460421FEF7AEF920460821C3
:1037B000FEF7AAF920460C21FEF7A6F940F2BC104C
:1037C000C2F20000FDF73AFE40F2942040F2AC3124
:1037D000C2F20000C2F200018022FEF711FE40F2A8
:1037E000DC2040F22431C2F20000C2F2000180224B
:1037F000FEF706FEFEE700002DE9F04140F600046A
:10380000C4F2010404F5006528464FF4005101227A
:10381000FDF778F928464FF4804100224FF0000868
:10382000FDF770F940F20427C2F2000738686426F9
:10383000466328464FF400410122FDF763F9204614
:1038400001210022FDF75EF93868022186632046D7
:103850000122FDF757F9204604210022FDF752F915
:1038600038680821C66320460122FDF74BF920463F
:1038700010210022FDF746F9386806644FF4FA700B
:10388000FDF71EF828464FF400510022FDF73AF9E3
:1038900028464FF480410122FDF734F938684FF48F
:1038A0000041466328460022FDF72CF920460121FD
:1038B0000122FDF727F9386802218663204600229D
:1038C000FDF720F9204604210122FDF71BF9386895
:1038D0000821C66320460022FDF714F92046102176
:1038E0000122FDF70FF9386806644FF4FA70FCF70F
:1038F000E7FF28464FF400510022FDF703F9284660
:103900004FF480410022FDF7FDF838684FF4004184
:10391000C0F8348028460022FDF7F4F82046012143
:103920000022FDF7EFF838680221C0F83880204601
:103930000022FDF7E7F8204604210022FDF7E2F817
:1039400038680821C0F83C8020460022FDF7DAF8EC
:10395000204610210022FDF7D5F83868C0F84080D5
:10396000BDE8F0812DE9F04F40F2942340F2900140
:10397000C2F20003C2F200010022DB6B4A701A6837
:1039800040F22C075268C2F20007C2F180088A8810
:103990001FFA88F3A1F80280934238BF80339A1A45
:1039A000D1E90534B7F800E002EB0309A9EB4E03B7
:1039B0009C42C1F814901ADA4FEA4E050EEB4E0CF9
:1039C00004EB0E079F420DDA2A199A420CDA64447E
:1039D0009C420BDA07EB0E02724402EB0E049C428F
:1039E000EEDB03E03C4601E004EB4E048C61A9EB06
:1039F0000E0294424FF0000C08DD4FF0000B5FFA0E
:103A00008BF0A1F80480BDE8F08F00BF40F2AC322B
:103A100000F10E0AC2F200024FF0000B0AE000BFF4
:103A2000CB69013401338C61CB61A9EB0E039C425D
:103A300000F3E880E31704EB536323F07F03E51AF8
:103A4000ABB212F803806B1CB8F1A50FCD800B81CF
:103A5000E6D105F10D0707F07F07D75D5A2FDFD1BB
:103A60009FB27F2F88BFA5F17F035F1C9DB2BEB2BE
:103A7000555D7F2E88BFA3F17F077B1C9EB27F2EF2
:103A8000BEB2965D88BFA7F17F039FB2D75D354474
:103A90005E1C3D44B7B27F2F88BFA3F17F06731C25
:103AA0009FB27F2FB7B2D75D88BFA6F17F039EB2CA
:103AB000965D3D4435445E1CB7B27F2F88BFA3F1AD
:103AC0007F06731C9FB27F2FB7B2D75D88BFA6F168
:103AD0007F039EB2965D3D4435445E1CB7B27F2F96
:103AE00088BFA3F17F06731C9FB27F2FB7B2D75D4B
:103AF00088BFA6F17F039EB2965D3D4435445E1CAF
:103B0000B7B27F2F88BFA3F17F06731C9FB27F2FB0
:103B1000B7B2D75D88BFA6F17F039EB2965D3D44E4
:103B200035445E1CB7B27F2F88BFA3F17F06B3B2C6
:103B3000D35CEFB29F420D70CE807FF471AF022351
:103B4000002400250862C1F80A30CC8106E000BFDD
:103B5000CB895D1CABB20E2BCD811BD20B89A6B2DB
:103B6000D35CAFB2F3400E6A03F00103F3558B89C7
:103B70005C1CA3B2072B8C81EAD90B89CF89013356
:103B80007D1C0B81ABB200240E2B8C81CD81E5D343
:103B900005E000BF230402D00B8901330B810C899F
:103BA00009235546C1F820A04B81A1F810C000BFE1
:103BB000A3B2802B24BF803C0C81A3B2D35C2B70BA
:103BC0000B890F8A5C1C7B1C4F899EB2BE420F6A18
:103BD0000C8107F101050D620B82E9D340F22C0341
:103BE000C2F20003B3F800E0D1E905934FF0010BF6
:103BF00003EB0E048C6181F801B0A9EB0E039C422B
:103C00007FF718AFB1F802805FFA8BF0A1F804805B
:103C1000BDE8F08F00000000000000000102030476
:103C20000607080900000000010203040102020364
:103C30000405060708090A0B0C0D0E0F10100000F2
:103C4000603C00080000002030000000280100084F
:103C5000903C000830000020000A000044010008E9
:103C600059585A58595A0000B5000020B600002093
:103C7000B7000020B8000020B9000020BA000020E2
:103C8000010000001000000000127A000E00000089
:04000005080000ED02
:00000001FF
