:020000040800F2
:10000000300A002089010008E1260008D11E0008FE
:1000100095230008B1030008A1300008000000008B
:10002000000000000000000000000000512C00084B
:10003000D90300080000000065280008992D000879
:10004000A3010008A3010008A3010008A301000800
:10005000A3010008A3010008A3010008A3010008F0
:10006000A3010008A3010008A3010008A3010008E0
:10007000B5030008C1030008A3010008CD03000870
:10008000A3010008A3010008A3010008A3010008C0
:10009000A3010008A3010008A3010008A3010008B0
:1000A000A3010008A3010008A3010008A3010008A0
:1000B000A12D0008A3010008A3010008A301000866
:1000C000A3010008A3010008A3010008A301000880
:1000D000A3010008A3010008A3010008A301000870
:1000E000A3010008A3010008A301000800F002F822
:1000F00000F03AF80AA090E8000C82448344AAF188
:100100000107DA4501D100F02FF8AFF2090EBAE885
:100110000F0013F0010F18BFFB1A43F0010318473B
:10012000C43C0000E43C0000103A24BF78C878C109
:10013000FAD8520724BF30C830C144BF04680C60ED
:10014000704700000023002400250026103A28BF35
:1001500078C1FBD8520728BF30C148BF0B60704739
:100160001FB51FBD10B510BD00F031F81146FFF7E7
:10017000F7FF03F0ADF800F04FF803B4FFF7F2FF1C
:1001800003BC00F057F800000948804709480047C1
:10019000FEE7FEE7FEE7FEE7FEE7FEE7FEE7FEE737
:1001A000FEE7FEE704480549054A064B7047000094
:1001B0009D2D0008ED00000830040020300A0020CA
:1001C00030060020300600207047704770477546A3
:1001D00000F02CF8AE4605006946534620F00700B3
:1001E000854618B020B5FFF7DDFFBDE820404FF091
:1001F00000064FF000074FF000084FF0000BAC4630
:10020000ACE8C009ACE8C009ACE8C009ACE8C0097A
:1002100021F007018D46704710B50446AFF300800A
:100220002046BDE81040FFF7A8BF00000048704717
:100230003800002001491820ABBEFEE7260002006E
:10024000704700002DE9F04F81B040F2000840F205
:10025000BC01C2F20008C2F20001002008F10C0B40
:1002600088769BE80908D8E906A900781F789BF8EA
:100270000060C2199AF80050D8F820E032445119B1
:1002800099F800209EF8004011442144C9B2052984
:100290001ED1002818BF4FF0FF30002F08BF0120EB
:1002A000002E08BF0220002D08BF0320002A08BF2F
:1002B0000420002C08BF052002F0F4FE40F2BC052B
:1002C000C2F200050220687601B0BDE8F08F00BFE1
:1002D00098F803104FF0FF0C5A294FF000040FD18B
:1002E00040F2BC05C2F20005002802BF0124AC7632
:1002F0004FF0000C98F804005A2809D00AE000BF1B
:1003000040F2BC05C2F2000598F804005A2801D159
:10031000187858B198F805005A280FD19BF80000BA
:1003200060B901244FF0020CAC7607E001244FF0D5
:10033000010CAC7698F805005A28EFD098F8060022
:100340005A2802D19AF8000060B198F807005A289C
:1003500010D199F8000068B901244FF0040CAC7674
:1003600008E000BF01244FF0030CAC7698F80700BA
:100370005A28EED098F808005A2802D19EF80000BA
:1003800040B15CB902F0AEF90220687601B0BDE878
:10039000F08F00BF0120A8764FF0050C4FFA8CF0CB
:1003A00002F080FE0220687601B0BDE8F08F000008
:1003B000FEE7000040F27C10C2F2000000F07EB8C0
:1003C00040F23810C2F2000000F078B840F2F400B9
:1003D000C2F2000000F072B870470000EFF3108026
:1003E00072B600BFFEE7000010B540F2BC04C2F2D6
:1003F000000404F1200003F0ADF894F8200094F814
:10040000211094F82220002894F8233018BF0120EE
:100410000029207018BF0121002A617018BF012235
:10042000A270002B18BF012394F82400E370002869
:1004300018BF012094F825102071002918BF012150
:1004400094F826006171002818BF012094F8271045
:10045000A071002918BF012194F82800E17100283B
:1004600018BF0120207294F8290094F82A1094F8FB
:100470002B20002894F82C3018BF0120002960722E
:1004800018BF0121002AA17218BF0122E272002BBD
:1004900018BF012394F82D002373002818BF0120F2
:1004A000D4F82E106073C4F80E10D4F8320094F80B
:1004B0003610C4F81200A17510BD000010B5D0E9C7
:1004C0000FCE0168DCF800300A6823FA0EF35C07EF
:1004D0002AD512F0040427D00A68920603D40A68C9
:1004E00022F004020A602F22C4F20202914240F27A
:1004F0000402C4F202025BDD3023C4F2020399421B
:1005000072D04423C4F20203994273D05823C4F238
:100510000203994240F07A804FF480231360C16A4D
:10052000002940F098806FE09C0727D512F0020464
:1005300024D00A68920606D40A6822F00A020A60E9
:10054000012280F821202F22C4F20202914240F2BF
:100550000402C4F202023BDD3023C4F202039942DA
:1005600060D04423C4F2020399425FD05823C4F2FE
:100570000203994260D14FF4003365E01B0743D575
:1005800012F0080208BF10BD0A6822F00E020A60CD
:10059000012101FA0EF2CCF80420816380F82110C9
:1005A000016B0022002980F8202054D12CE000BFEC
:1005B0000823C4F20203994222D01C23C4F202038E
:1005C000994223D140231360C16A002943D11BE023
:1005D0000823C4F2020399422CD01C23C4F2020364
:1005E000994229D120232FE04FF480631360C16A20
:1005F00089BB09E04FF480431360C16A59BB03E033
:1006000004231360C16A31BB10BD00BF02F168044E
:100610004FF08063A14208BF4FF480031360C16AAA
:10062000C9B9F1E74FF400730EE000BF4FF4005377
:100630000AE000BF022307E002F168044FF00073F4
:10064000A14208BF4FF400131360816A0022002901
:1006500080F82020D8D0BDE8104008470146002887
:100660004FF0010008BF70472DE9F043D1F800C0FA
:100670004FF6F873CBF6FD734CF6CD426344CCF6DF
:10068000CC42A3FB02236FF0030707EA9303002782
:10069000C4F2020701F10C09C1E90F730223D1E989
:1006A000012E99E87002D1F81C8081F82130DCF825
:1006B000003043F6F077BB431A4342EA0E0222436E
:1006C0002A43324342EA090242EA0802CCF80020F7
:1006D00000228A6381F8210081F820200020BDE8F3
:1006E000F0437047F0B590F820C0BCF1010F32D054
:1006F0004FF0010E80F820E090F821C0BCF1010F0E
:1007000026D14FF0020C80F821C04FF0000CC0F849
:1007100038C0D0E900C4C56AC66BDCF80070102C84
:1007200027F00107CCF80070006C0EFA00F0706042
:100730000846CCF8043004BF10460A46CCF808003E
:10074000CCF80C20DCF8000045B140F00E000DE0C4
:10075000002180F820100220F0BD00BF20F004002E
:10076000CCF80000DCF8000040F00A00CCF80000F3
:10077000DCF8000040F00100CCF800000020F0BDE3
:10078000B0B5044600F024F9054640F22400C2F258
:1007900000000078611C18BF044400BF00F018F985
:1007A000401BA042FAD3B0BD2DE9F04F82B00E68D5
:1007B000002E00F0038141F20042C4F20102042342
:1007C00040F2004E904208BF03234FF6FF7CC4F274
:1007D000010E009300240123C1F2100C4FF0000A17
:1007E0004FF0000949E000BF012704F00C030F227D
:1007F0009A402BEA020207FA03F34FEA9A051A43DA
:1008000046F82520D1F804B040F20C455FEACB222F
:10081000DEF8082054BF22EA080242EA0802C4F2C5
:100820000105CEF808202A685FEA8B2354BF22EA2C
:10083000080242EA08022A605FEA8B33DEF80420ED
:1008400054BF22EA080242EA08025FEACB33CEF83C
:100850000420DEF800204FF0010354BF22EA080212
:1008600042EA0802CEF800200E680AF1010A36FAC0
:100870000AF204F1040400F0A18003FA0AF816EA6F
:10088000080FF1D04E68664512DC122E56D8DFE80C
:1008900006F0350B45495555555555555555555542
:1008A0005555554D510000BFD1F80C9046E000BFA2
:1008B0004FF6FF72C1F2210296420FDC0022C1F214
:1008C000110296421AD00022C1F21202964215D0AD
:1008D0000022C1F22102964210D02FE00022C1F284
:1008E000220296420AD00022C1F23102964205D07D
:1008F0000022C1F23202964220D100BF8A684AB17A
:10090000012A14BFC0F81480C0F810804FF0080905
:1009100014E000BF4FF0040910E000BFCA6802F104
:1009200008090BE04FF0000908E000BFCA6802F1B7
:10093000040903E0CA6802F10C0900BF224606461A
:10094000BAF1080F24BF203A043637680F259540C6
:1009500027EA050509FA02F22A433260CA79D2066B
:100960007FF582AF41F21803C4F202031A68AEF5B4
:100970007E7642F001021A601A6802F001020192CA
:10098000019A2AF0030256F802B040F60002C4F2BF
:100990000102904210D040F60042C4F2010290429F
:1009A0003FF422AF41F20002C4F20102009F9042E4
:1009B00008BF022719E700BF002716E702B0BDE80D
:1009C000F08F0000002A08BF090401617047000091
:1009D00040F2AC30C2F200000068704740F22400E0
:1009E00040F2AC31C2F20000C2F2000100780A68A5
:1009F000104408607047000080B542F20000C4F265
:100A00000200016841F010010160032000F08EF83F
:100A1000012000F005F800F027F8002080BD00005C
:100A200070B540F22406C2F2000640F22C01327882
:100A3000C2F200014FF47A730968B3FBF2F2044684
:100A4000B1FBF2F1084600F063FB0F2C4FF00105FB
:100A500008D838B94FF0FF3021460022002500F0B9
:100A600039F87460284670BD82B041F21800C4F2B3
:100A700002000168022241F001010160016801F0F9
:100A8000010101910199416841F080514160406844
:100A900000F08050009000980420C4F2010001682A
:100AA00062F31A61016002B070470000002848BF7D
:100AB0007047C1B200F01F00012202FA00F04EF2AE
:100AC0000012CEF2000242EAD10121F003010860D7
:100AD0007047000010B54EF60C5CCEF2000CDCF84E
:100AE0000030C3F3022E8EF00704042C28BF042428
:100AF000BEF103034FF0FF3E0EFA04F438BF0023AB
:100B0000A14399400EFA03F39A43114300F00F02F8
:100B100000F160430901043A03F56443624400288C
:100B200048BF02F10C03197010BD00004EF60C51C5
:100B3000CEF200010A684FF6FF031A4060F30A2262
:100B400042F0806040F0FD70086070472DE9F0438E
:100B500081B0002800F0858042F20008C4F202084B
:100B60000446D8F800000D4600F0070088420CD279
:100B7000D8F8000020F007002843C8F80000D8F893
:100B8000000000F00700A8426BD1206841F2040980
:100B90008107C4F2020917D5410705D5D9F800101D
:100BA00041F4E061C9F80010010705D5D9F800103B
:100BB00041F46051C9F80010D9F80010A26821F082
:100BC000F0011143C9F80010C00741D1D8F8000066
:100BD00000F00700A8420CD9D8F8000020F0070068
:100BE0002843C8F80000D8F8000000F00700A84229
:100BF00037D12068410707D5D9F80010E26821F401
:100C0000E0611143C9F80010000708D5D9F80000C9
:100C1000216920F4605040EAC100C9F80000D9F809
:100C2000002002F00C00082841F20020C0F27A00F7
:100C300050D143F6D253C2F38341C0F60003595C4E
:100C4000D2033BD440F60010C0F23D00484341E0DF
:100C5000606802280AD001282AD159F8041C8903A7
:100C600008D4012001B0BDE8F08300BF59F8041C8E
:100C70008901F6D5D9F8001021F003010843C9F81D
:100C80000000FFF7A5FE064641F28837D9F80000BC
:100C9000616800F00C00B0EB810F97D0FFF798FE71
:100CA000801BB842F2D9032001B0BDE8F08300BF39
:100CB00059F8041C8907D4D5DCE700BFD9F8002017
:100CC00043F6D053C2F34042C0F600039A5C484357
:100CD000B0FBF2F0D9F8001043F6B852C1F303119B
:100CE000C0F60002515C40F22C0220FA01F140F201
:100CF0002800C2F200000068C2F200021160FFF793
:100D00008FFE002001B0BDE8F083000040F22C000F
:100D100041F20401C2F20000C4F202010068096855
:100D200043F6C852C1F30221C0F60002515CC8402C
:100D30007047000040F22C0041F20401C2F20000B2
:100D4000C4F202010068096843F6C852C1F3C22127
:100D5000C0F60002515CC840704700002DE9F04128
:100D600082B0002868D00446007841F20006C0072F
:100D7000C4F2020625D0706800F00C0004281BD0D5
:100D8000706800F00C00082802D17068C00313D40A
:100D90006068002800F06881B0F5A02F00F07C8129
:100DA000B0F5803F00F07C81306820F48030306006
:100DB000306820F4802076E13068800301D56068D7
:100DC000D0B32078800718D5706810F00C0F07D0CA
:100DD000706800F00C0008286ED17068C0036BD4F6
:100DE0003068800702D52069012825D13068616903
:100DF00020F0F80040EAC1003060207800071FD4DE
:100E00002078400732D4E56995B1706800F00C0095
:100E1000082840F08F80012D0ED07068216A00F400
:100E200080328A4208D1616A00F47010884203D18E
:100E3000002002B0BDE8F081012002B0BDE8F081E1
:100E4000A069002862D00020C4F242200121C0F82D
:100E50008014FFF7BDFD0546706A800700F18C80A5
:100E6000FFF7B6FD401B0228F6D92AE1F06910F021
:100E7000805808D1F06940F08050F061F06900F0CE
:100E800080500090009847F20007C4F200073868CD
:100E9000C00529D4386840F480703860FFF798FDA9
:100EA000054600BF3868C0051ED4FFF791FD401B02
:100EB0006428F7D905E100BF2069002840F200004E
:100EC000C4F2422000F0828001210160FFF780FD22
:100ED000054600BF306880073FF588AFFFF778FD13
:100EE000401B0228F6D9ECE0E068002800F0808082
:100EF000052800F09780012800F09880306A20F0E3
:100F000001003062306A20F0040092E00020C4F258
:100F100042200021C0F88014FFF75AFD054600BFAB
:100F2000706A80077FF56CAFFFF752FD401B022807
:100F3000F6D9C6E00027C4F2422700203866FFF742
:100F400047FD022D05460BD13068800140F1BE807F
:100F5000FFF73EFD401B02284FF00300F4D968E77D
:100F6000306880017FF564AFFFF732FD401B022837
:100F70004FF00300F4D95CE740F22C00C2F200000D
:100F8000006844F6D351C1F26201A0FB0101480A96
:100F9000019000BF00BF0198411E002801913FF45D
:100FA0002FAF00BF0198411E002801913FF428AFE8
:100FB00000BF0198411E002801913FF421AF00BFFE
:100FC0000198411E00280191E4D119E70021016038
:100FD000FFF7FEFC054600BF306880077FF50DAFC8
:100FE000FFF7F6FC401B02284FF00300F4D920E77E
:100FF000306A20F001003062306A20F00400306274
:10100000FFF7E6FC054641F2883700BF306A8007EB
:1010100020D5FFF7DDFC401BB8424FF00300F5D9A7
:1010200007E700BF306A40F004003062306A40F0E9
:1010300001003062FFF7CCFC054641F2883700BF63
:10104000306A800706D4FFF7C3FC401BB842F7D9CB
:1010500037E000BFB8F1000F7FF4D5AEF06920F0A3
:101060008050F061CFE600BF306820F480303060FF
:10107000306820F480203060FFF7AAFC054600BFEE
:10108000306880037FF59DAEFFF7A2FC401B64280B
:101090004FF00300F4D9CCE6306840F48020306093
:1010A000306840F480303060FFF792FC054600BFA6
:1010B000306880033FF585AEFFF78AFC401B64284B
:1010C000F6D9032002B0BDE8F08100BF206AB0F578
:1010D000803F05D17168A26821F40031114371602D
:1010E0007168626A21F47411114308437060012031
:1010F0003866FFF76DFC0446306880013FF598AE16
:10110000FFF766FC001B02284FF00300F4D990E6BD
:10111000411E0020B0EB116F1CBF012070474EF242
:101120001002CEF2000251604EF62351CEF20001C1
:10113000F0230B700721906011607047704700002A
:101140007047000010B590F83C20012A4FF00202D1
:1011500033D080F83D200268D2F804E0D2F808C00D
:101160000C682EF07003234340F2FF74C4F20004B5
:10117000A24253600ADCB2F1804F13D040F2004328
:10118000C4F200039A420DD011E000BF42F60043C2
:10119000C4F201039A4205D040F60003C4F20003F2
:1011A0009A4204D149682CF08003194391600121CF
:1011B000002280F83D1080F83C20104610BD000051
:1011C000002804BF0120704710B5044690F83D0088
:1011D00028B9002084F83C00204600F06FF8022077
:1011E00084F83D00206840F2FF730268C4F20003F7
:1011F00042F6004C9842C4F2010C15DCB0F1804F6D
:101200001AD040F20041C4F20001884214D0984242
:1012100018DCB0F1804F1DD040F20041C4F2000153
:10122000884217D01AE000BF604505D040F60001A3
:10123000C4F200018842EAD1A16822F070020A4398
:101240009842E6DD604505D040F60001C4F2000199
:10125000884203D1216922F440720A43A36922F033
:101260008001D4F804E0E268194360450160C2627D
:10127000C0F828E002D16169CCF830100121416149
:101280000269D20703D0026922F001020261002044
:1012900084F8461084F83E1084F83F1084F840101B
:1012A00084F8411084F8421084F8431084F8441004
:1012B00084F8451084F83D1010BD000080B582B060
:1012C0000068B0F1804F1CBF02B080BD41F21C002D
:1012D000C4F202000168002241F0010101600068CF
:1012E000022100F00100019001981C20FFF7F2FBA1
:1012F0001C2002B0BDE88040FFF7D8BB90F83D103D
:1013000001291CBF01207047022180F83D100068B0
:1013100040F2FF72C168C4F20002904241F0010144
:10132000C16009DCB0F1804F12D040F20041C4F23C
:10133000000188420CD012E042F60041C4F20101E3
:10134000884205D040F60001C4F20001884206D16F
:10135000816801F00701062904BF00207047016879
:1013600041F00101016000207047000080B590F855
:101370003C20012A4FF0020200F0C28080F83D209C
:10138000D0F800C04FF67772DCF8083023EA02028A
:10139000CCF808200B684F2B28DC1F2B44DD202BBA
:1013A00045D0302B43D0402B40F0AC80D1F804E046
:1013B000C968DCF82030DCF8202022F00102CCF8EB
:1013C0002020DCF8182022F0F00242EA011123F07C
:1013D0000A0242EA0E02CCF81810CCF82020DCF801
:1013E000081041F0470121F0300180E06F2B27DD2C
:1013F000B3F5005F48D0B3F5805F7AD0702B40F032
:101400008180D1E901E3C968DCF8082043EA0E03D2
:1014100022F47F4243EA01211143CCF80810DCF8A2
:10142000081041F0770162E00BB1102B6AD1DCF8B3
:10143000081021F07001194341F0070157E000BF87
:10144000502B35D0602B5DD1D1F804E0C968DCF8B1
:101450002030DCF8202022F01002CCF82020DCF82C
:10146000182022F4704242EA013123F0A00242EA3D
:101470000E12CCF81810CCF82020DCF8081041F03F
:10148000670121F0100132E0D1E901E3C968DCF81D
:10149000082043EA0E0322F47F4243EA012111436C
:1014A000CCF80810DCF8081041F480411FE000BFC0
:1014B000D1F804E0C968DCF82030DCF8202022F004
:1014C0000102CCF82020DCF8182022F0F00242EAD9
:1014D000011123F00A0242EA0E02CCF81810CCF8EF
:1014E0002020DCF8081041F0570121F02001CCF851
:1014F00008100022012180F83D10002180F83C10E6
:10150000104680BD0122F5E77047000070B5044623
:101510000068C5680669B10716D515F0020113D039
:101520006FF002010161012121778069800703D0FA
:101530002046FFF7E9FF05E0204600F08FF820463F
:1015400000F040FA00202077700719D515F004004C
:1015500016D020686FF004010161022121778069B3
:1015600010F4407F04D02046FFF7CEFF06E000BF16
:10157000204600F073F8204600F024FA002020777F
:10158000300717D515F0080014D020686FF0080157
:10159000016104212177C069800703D02046FFF74D
:1015A000B3FF05E0204600F059F8204600F00AFAA3
:1015B00000202077F00619D515F0100016D020680D
:1015C0006FF01001016108212177C06910F4407F9C
:1015D00004D02046FFF798FF06E000BF204600F049
:1015E0003DF8204600F0EEF900202077F00718BF04
:1015F00015F0010002D1300609D412E020686FF026
:1016000001010161204600F04FFA300609D515F0BE
:10161000800006D020686FF0800101612046FFF74E
:101620008DFD700609D515F0400006D020686FF0DA
:1016300040010161204600F053FAB00658BF70BD6A
:1016400015F0200008D021686FF0200220460A61C2
:10165000BDE87040FFF774BD70BD0000704700002A
:101660002DE9F04390F83C30012B04BF0220BDE887
:10167000F0834FEAB202032A3CD8DFE802F00343CA
:1016800081BD00BF036842F600461D6A1A6AC4F2B3
:10169000010622F001021A621A465C6852F818CF5D
:1016A000B3428E68D1F800E025F0020545EA060550
:1016B0000CD1CE68D1E9057824F4407425F00C05EE
:1016C00026F004063C43354344EA08042CF0730733
:1016D00047EA0E075C609F614F6809695F631D629E
:1016E0009F6947F008079F619F6927F004079F6182
:1016F000B2E000BF0121002280F83C200846BDE88E
:10170000F08300BF036842F600461D6A1A6AC4F2FD
:10171000010622F010021A621A46D3F804C052F8E9
:10172000184FB3428E68D1F800E025F0200545EA55
:10173000061510D1CE68D1E9058725F0C0096FF0F4
:10174000400505EA06152CF4406647EA080745EA15
:10175000090546EA870C24F4E64444EA0E27C3F858
:1017600004C09F614F6809699F631D629F6947F4C8
:1017700000679F619F6927F480679F616BE000BFEE
:10178000036842F600461D6A1A6AC4F2010622F492
:1017900080721A621A46D3F804C052F81CEFB342A2
:1017A0008E680C6825F4007545EA062511D1CE68CF
:1017B000D1E9058725F44069360240F2FF4526EA63
:1017C00005052CF4405647EA080745EA090546EAAC
:1017D000071C2EF073072743C3F804C0DF614F686E
:1017E0000969DF631D62DF6947F00807DF61DF69B0
:1017F00027F00407DF612FE0036842F60047D3F8C3
:1018000020C01A6AC4F2010722F480521A621A46F2
:101810005C6852F81C5FD1F800E08E68BB4204D1CE
:101820004F6924F4804444EA87142CF4005747EAB3
:10183000063725F4E64646EA0E265C60DE614E6811
:1018400009691E641F62DF6947F40067DF61DF69B1
:1018500027F48067DF6109021368194311600021D2
:10186000002280F83C200846BDE8F083002804BF31
:101870000120704710B5044690F83D0028B90020BB
:1018800084F83C00204600F06FF8022084F83D0008
:10189000206840F2FF730268C4F2000342F6004C75
:1018A0009842C4F2010C15DCB0F1804F1AD040F21E
:1018B0000041C4F20001884214D0984218DCB0F113
:1018C000804F1DD040F20041C4F20001884217D081
:1018D0001AE000BF604505D040F60001C4F20001E7
:1018E0008842EAD1A16822F070020A439842E6DDFC
:1018F000604505D040F60001C4F20001884203D1E2
:10190000216922F440720A43A36922F08001D4F8CD
:1019100004E0E268194360450160C262C0F828E053
:1019200002D16169CCF83010012141610269D2070E
:1019300003D0026922F001020261002084F84610FF
:1019400084F83E1084F83F1084F8401084F8411069
:1019500084F8421084F8431084F8441084F8451049
:1019600084F83D1010BD000082B0006840F6000110
:10197000C4F20001884215D040F20041C4F20001D7
:1019800088421CD141F21C00C4F20200016841F0FF
:1019900002010160006800F002000190019802B0AD
:1019A000704700BF41F21C00C4F20200016841F020
:1019B00004010160006800F004000090009802B08B
:1019C000704700007047000041B1082910D0042979
:1019D00014BF00F1410200F13F020BE090F83E20FD
:1019E000012A1CBF01207047022280F83E2013E02C
:1019F00000F140021278012A1CBF01207047022228
:101A0000082907D0042914BF80F8412080F83F201E
:101A100002E000BF80F84020006801F01F010122B1
:101A2000036A8A4023EA02010162036A42F64441E2
:101A3000C4F201011A43A1F14403984202620FD09B
:101A400040F2FF71C4F20001884213DCB0F1804F14
:101A50001CD040F20041C4F20001884216D01CE0C4
:101A60000A6842F400420A6040F2FF71C4F20001C9
:101A70008842EBDD42F60041C4F20101884205D004
:101A800040F60001C4F20001884206D1816801F0ED
:101A90000701062904BF00207047016841F00101D9
:101AA000016000207047000010B540F2C011C2F282
:101AB0000001884200D010BDFEF796FC00F0ECFF5C
:101AC00040F2A834C2F200042078002818BF10BDEC
:101AD0000120207000F0C8FE0020207010BD000022
:101AE000704700007047000070470000002804BFE6
:101AF0000120704710B5044690F8410028B9002035
:101B000084F84000204600F063F8242084F8410067
:101B10002068D4E90212C36823F40053C360036948
:101B200023F440531A430261D4E904231143C268E9
:101B3000194341F20C639A431143C1604169A269A0
:101B400021F44071114343F60002C4F201029042B5
:101B5000416103D0FFF7DAF802E000BFFFF7EAF8CF
:101B60006268192148439100B0FBF1F048F21F511F
:101B7000C5F2EB11A0FB01235A094FF69C73C0F686
:101B8000FF7302FB0300322303EB0010A0FB0101F3
:101B9000F02303EA5113206803EB0212C1F343114F
:101BA00011448160016921F490410161416921F092
:101BB0002A014161C16841F40051C1600020202127
:101BC000606484F8411084F84210606310BD000026
:101BD0002DE9F04186B00446006844F60001C4F2E5
:101BE0000001002788420597CDE90377029751D07D
:101BF00043F60001C4F20101884240F0B28041F294
:101C00001800C4F20200016840F6000541F480416A
:101C100001600168C4F2010501F48041019101995C
:101C2000016802AE41F0040101600068314600F035
:101C30000400019001984FF400700290022003907C
:101C4000032005902846FEF7AFFD4FF48060029018
:101C5000002728463146CDE90377FEF7A5FD1C2075
:101C6000C4F2020040F2F4053C30C2F200058021CB
:101C70002022C5E900072846C5E90271C5E90477B5
:101C8000C5E90627FEF7EAFC002818BFFEF7A6FB09
:101C9000E56363E041F21800C4F20200416802AE5D
:101CA00041F480214160416840F21C0801F4802128
:101CB000019101990168C4F2020841F00801016034
:101CC0000068314600F00800019001984FF48060F0
:101CD0000290022003900320059040F60000C4F219
:101CE000010000F580652846FEF75EFD4FF40060B8
:101CF000CDE90207284631460497FEF755FD40F22C
:101D0000381508F11400C2F2000580262021C5E92B
:101D100000072846C5E90276C5E90477C5E9061734
:101D2000FEF79CFC002818BFFEF758FBE5636C62C9
:101D300040F27C15C2F2000510200021C5E90080A8
:101D40002846C5E90216C5E90411C5E90611FEF7E2
:101D500085FC002818BFFEF741FBA56305F12400B0
:101D6000046006B0BDE8F08170B582B0044690F81A
:101D7000420020280AD113460A4600294FF00100EC
:101D800018BF002B06D102B070BD00BF022002B008
:101D900070BD00BF002522202563A262A385656473
:101DA00084F842002168E06B42F6297C43F2890EF8
:101DB00042F6AD56C0F6000CC0F6000EC0F60006A6
:101DC0000431C0E90ACEC0E90C65FEF78BFC019531
:101DD000206801680191406801900198206928B34A
:101DE000206850E8030F216840F4807041E8030246
:101DF000E2B1206850E8030F216840F4807041E8A8
:101E000003029AB1206850E8030F216840F4807003
:101E100041E8030252B1206850E8030F216840F402
:101E2000807041E80302002ADAD100BF206850E840
:101E3000050F216840F0010041E80502E2B1206889
:101E400050E8050F216840F0010041E805029AB111
:101E5000206850E8050F216840F0010041E80502C4
:101E600052B1206850E8050F216840F0010041E8B8
:101E70000502002ADAD100BF206850E8050F21686A
:101E800040F0400041E80502DAB1206850E8050F53
:101E9000216840F0400041E8050292B1206850E816
:101EA000050F216840F0400041E805024AB1206872
:101EB00050E8050F216840F0400041E80502002A83
:101EC000DAD1002002B070BD7047000070470000FA
:101ED000FEE7000080B582B041F21400C4F20200B7
:101EE0000168002241F0010101600068052100F055
:101EF0000100019001980C20FEF7ECFD0C20FEF78C
:101F0000D5FD0D2003210022FEF7E4FD0D20FEF794
:101F1000CDFD0F2004210022FEF7DCFD0F2002B0D2
:101F2000BDE88040FEF7C2BD2DE9F04784B041F224
:101F30001800C4F20200016840F6000A41F01001E6
:101F400001600168C4F2010A01F0100100910099DA
:101F500001680AF5006541F0200101600168002276
:101F600001F020010091009901684FF4604641F0B2
:101F70000401016001684FF0000901F004010091C3
:101F80000099016841F00801016000684FF4604168
:101F900000F00800009000982846FEF713FD504618
:101FA0001F2100224FF01F08FEF70CFD00966E4621
:101FB0000127022428463146CDE901790394FEF732
:101FC000F3FB50463146CDE90087CDE90294FEF798
:101FD000EBFB04B0BDE8F08780B586B040F2C010DE
:101FE0000021C2F200004FF0804240F2CF234FF0B8
:101FF000630C0591CDE90311CDE90011C0E900237F
:10200000C0E9021C01618161FFF7DAF8002818BFFE
:10201000FEF7E4F94FF48050029040F2C010C2F293
:10202000000002A9FFF7A2F9002818BFFEF7D6F9B1
:1020300040F2C010C2F200006946FFF783F80028A2
:1020400018BFFEF7CBF906B080BD0000B0B590B068
:1020500040F2082040F200450021C2F20000632354
:10206000C4F20005CDE90811CDE90611CDE904114E
:1020700040F60F62C0E9021301618021C0E90052FD
:102080008161FFF7F3FB002818BFFEF7A7F940F2C4
:102090000820C2F2000008A9FFF754F8002818BF72
:1020A000FEF79CF9602001903120029000200390FF
:1020B000059040F20820C2F2000001A90022FFF7BB
:1020C000CFFA002818BFFEF789F940F20820C2F2C3
:1020D000000001A90422FFF7C3FA002818BFFEF789
:1020E0007DF90020029040F20820C2F2000001A910
:1020F0000822FFF7B5FA002818BFFEF76FF940F283
:102100000824C2F2000401A920460C22FFF7A8FA15
:10211000002818BFFEF762F9206840F60001C4F2FB
:10212000000188424FF00001CDE90E11CDE90C11FC
:1021300026D0A8423DD141F21800C4F20200016845
:10214000022441F004010160016801F004010B91D7
:102150000B99016841F00801016000680CA900F0CA
:1021600008000B900B98C0200C9005F582300D9460
:102170000F94FEF719FB0320CDE90C0412E000BF19
:1021800041F21800C4F20200016841F00801016048
:10219000006800F008000B900B984FF470700C90E2
:1021A00002200D9002200F9005F584300CA9FEF757
:1021B000FBFA10B0B0BD0000B0B590B040F25020B6
:1021C00040F600050021C2F2000040F2CF73C4F2D5
:1021D0000005CDE90811CDE90611CDE9041140F261
:1021E000CF22C0E9021301618021C0E90052816160
:1021F000FFF73CFB002818BFFEF7F0F840F2502034
:10220000C2F2000008A9FEF79DFF002818BFFEF7E4
:10221000E5F8602001900020CDE90200059040F231
:102220005020C2F2000001A90022FFF719FA00288D
:1022300018BFFEF7D3F840F25020C2F2000001A907
:102240000422FFF70DFA002818BFFEF7C7F840F286
:102250005020C2F2000001A90822FFF701FA00286D
:1022600018BFFEF7BBF840F25024C2F2000401A9E7
:1022700020460C22FFF7F4F9002818BFFEF7AEF84D
:1022800020680021A842CDE90E110D910C9129D0B2
:1022900040F20041C4F2000188423CD141F21800F2
:1022A000C4F202000168022441F0040101600168E7
:1022B00001F004010B910B99016841F008010160E4
:1022C00000680CA900F008000B900B98C0200C903F
:1022D00005F580300D940F94FEF766FA0320CDE9E2
:1022E0000C0411E041F21800C4F20200016841F050
:1022F00008010160006800F008000B900B984FF493
:1023000070700C9002200D9002200F9005F5823025
:102310000CA9FEF749FA10B0B0BD000080B540F23C
:10232000982043F60001C2F20000C4F2010100232C
:102330004FF00C0C4FF4165280E80E00C0E9033346
:10234000C0E905C3C361FFF7D1FB002808BF80BD0A
:10235000BDE88040FEF742B880B540F2E02044F688
:102360000001C2F20000C4F2000100234FF00C0C87
:102370004FF4E13280E80E00C0E90333C0E905C341
:10238000C361FFF7B3FB002808BF80BDBDE88040F4
:10239000FEF724B8FEE700002DE9F041422800F0E6
:1023A0008580462818BFBDE8F08140F60004C4F2DD
:1023B000010404F5006528464FF4005100224FF057
:1023C0000008FEF7FFFA28464FF480410122FEF78D
:1023D000F9FA40F20827C2F200073868642646631B
:1023E00028464FF400410122FEF7ECFA2046012175
:1023F0000022FEF7E7FA38680221866320460022B1
:10240000FEF7E0FA204604210122FEF7DBFA3868E5
:102410000821C66320460122FEF7D4FA2046102187
:102420000022FEF7CFFA386806644FF47A70FEF7A0
:10243000A7F928464FF400510022FEF7C3FA2846B8
:102440004FF480410022FEF7BDFA38684FF4004196
:10245000C0F8348028460022FEF7B4FA2046012155
:102460000022FEF7AFFA38680221C0F83880204613
:102470000022FEF7A7FA204604210022FEF7A2FA66
:1024800038680821C0F83C8020460022FEF79AFAFE
:10249000204610210022FEF795FA39684FF47A7031
:1024A000C1F84080BDE8F041FEF76AB94FF47A7098
:1024B000FEF766F940F60004C4F2010404F5006575
:1024C00028464FF400510122FEF77CFA28464FF4CB
:1024D000804100224FF00008FEF774FA40F208270E
:1024E000C2F2000738686426466328464FF400416C
:1024F0000022FEF767FA204601210122FEF762FA68
:1025000038680221866320460122FEF75BFA2046E6
:1025100004210022FEF756FA38680821C6632046D7
:102520000022FEF74FFA204610210122FEF74AFA58
:10253000386806644FF4FA60FEF722F928464FF433
:1025400000510022FEF73EFA28464FF48041002257
:10255000FEF738FA38684FF40041C0F83480284656
:102560000022FEF72FFA204601210022FEF72AFA68
:1025700038680221C0F8388020460022FEF722FA8F
:10258000204604210022FEF71DFA38680821C0F811
:102590003C8020460022FEF715FA2046102100223A
:1025A000FEF710FA3868C0F84080BDE8F0810000FE
:1025B0002DE9F0474C284FF0000807D0522818BFEB
:1025C000BDE8F0870127002602E000BF01260027B2
:1025D00040F60004C4F2010404F5006528464FF4F7
:1025E00000513246FEF7EEF928464FF480413A4654
:1025F000FEF7E8F940F20829C2F20009D9F8000014
:102600004FF0640AC0F834A028464FF40041324627
:10261000FEF7D8F9204601213A46FEF7D3F9D9F85A
:1026200000000221C0F838A020463A46FEF7CAF959
:10263000204604213246FEF7C5F9D9F800000821EA
:10264000C0F83CA020463A46FEF7BCF920461021CF
:102650003246FEF7B7F9D9F80000C0F840A04FF4B1
:10266000FA70FEF78DF828464FF400510022FEF76D
:10267000A9F928464FF480410022FEF7A3F9D9F8C2
:1026800000004FF40041C0F8348028460022FEF7D5
:1026900099F9204601210022FEF794F9D9F80000AB
:1026A0000221C0F8388020460022FEF78BF9204630
:1026B00004210022FEF786F9D9F800000821C0F8AD
:1026C0003C8020460022FEF77DF9204610210022A2
:1026D000FEF778F9D9F80000C0F84080BDE8F0872F
:1026E000FEE7000070B540F20000C2F20000C178C1
:1026F00040F2BC02C2F2000200235929D37623D053
:102700000579592D29D04479592C2FD08679592E05
:1027100035D090F807E0BEF1590F3BD090F808C0D3
:10272000BCF1590F41D0927B012A47D8582949D191
:10273000C1680A78B2FA82F14909002A18BF4FF03D
:10274000FF32582D42D04AE0C3681B78002B04BFEB
:10275000012393760579592DD5D103691B78002B78
:1027600004BF012393764479592CCFD143691B7858
:10277000002B04BF012393768679592EC9D1836932
:102780001B78002B04BF0123937690F807E0BEF17D
:10279000590FC3D1C3691B78002B04BF0123937663
:1027A00090F808C0BCF1590FBDD1036A1B78002B0B
:1027B00004BF01239376927B012AB7D9BDE870400C
:1027C00000F012BE0021FF22582D08D103691B78AA
:1027D000B3FA83F56D092943002B08BF0122582C59
:1027E00014D0582E1DD0BEF1580F26D0BCF1580F72
:1027F0002FD1006A0078B0FA80F35B09002808BF87
:10280000052253EA010027D170BD00BF43691B7840
:10281000B3FA83F464092143002B08BF0222582E27
:10282000E1D183691B78B3FA83F464092143002B57
:1028300008BF0322BEF1580FD8D1C3691B78B3FA81
:1028400083F676093143002B08BF0422BCF1580FF0
:10285000CFD0002908BF70BD50B2BDE8704000F075
:1028600021BC0000704700002DE9F04340F2BC0C91
:10287000C2F2000C9CF8180010B1BDE8F08300BF54
:1028800040F228321521C2F20002531813F8150C39
:102890004B2843D013F8140C4B2845D013F8130CD5
:1028A0004B2847D013F8120C4B2849D013F8110CC1
:1028B0004B284BD013F8100C4B284DD013F80F0CAD
:1028C0004B284FD013F80E0C4B2851D013F80D0C99
:1028D0004B2853D013F80C0C4B2855D013F80B0C85
:1028E0004B2855D013F80A0C4B2855D013F8090C77
:1028F0004B2855D013F8080C4B2855D013F8070C6B
:102900004B2855D013F8060C4B2855D0103195297B
:10291000BBD19CF81E109CF81F2064E0A1F11002AE
:102920000F39153B4AE000BFA1F10F020E39143BED
:1029300044E000BFA1F10E020D39133B3EE000BFA1
:10294000A1F10D020C39123B38E000BFA1F10C02DD
:102950000B39113B32E000BFA1F10B020A39103BE9
:102960002CE000BFA1F10A0209390F3B26E000BFAD
:10297000A1F1090208390E3B20E000BFA1F10802D5
:1029800007390D3B1AE000BFCA1F06390C3B15E0A2
:102990008A1F05390B3B11E04A1F04390A3B0DE041
:1029A0000A1F0339093B09E0CA1E0239083B05E04A
:1029B0008A1E0139073B01E04A1E063B988840F217
:1029C0000007C2F200071B68A7F80700D01CC7F871
:1029D000033083B20232762B8CF81E10ACF81C0048
:1029E0008CF81F2002D90020ACF81C0040F2000334
:1029F000C2F2000393F8038093F80490A8F15A06FA
:102A0000A9F15A0793F805E0B6FA86F6B7FA87F700
:102A100076097F0946EA4706AEF15A079D79B7FA6B
:102A200087F77F0946EA8707A5F15A06B6FA86F6C0
:102A30007009DE7947EAC000A6F15A07B7FA87F7AE
:102A40007C091F7A40EA0410A7F15A04B4FA84F40E
:102A500001EB8101640902EB410140EA44101039A5
:102A6000C0B2C9B2884218BFBDE8F0839CF800002C
:102A700020B101208CF81800BDE8F08383F80390A2
:102A800083F804805D7183F806E0DF711E72012017
:102A90008CF81800BDE8F0832DE9F04140F2BC0548
:102AA000C2F20005697A687E51B1002818BFBDE8FE
:102AB000F08101206876BDE8F041FDF7C3BB00BF9F
:102AC000E979022808BF00291ED0287A00B3002027
:102AD000E87540F20000C2F2000046F26442028053
:102AE0002322002908BF6422827040F25020C2F2E3
:102AF0000000016896204863FA208863C863A2F149
:102B00006A00C0B258E000BF00206876BDE8F081DE
:102B100095F91380EB7A287D6E7D40F20002C2F2B7
:102B200000022327002985F817801070567008BF0F
:102B30006427002B977018BF1070297B40B20029C2
:102B400018BF5670697B00291CBFAF7D977000F0DD
:102B500030FF49F69A1249F69913C9F69912C3F64D
:102B6000E97300F03DFF0023C4F23403002200F0BB
:102B700049FE00F0EFFE044670B200F01AFF002399
:102B8000C3F6E873002200F02BFF0023C4F23903E0
:102B9000002200F037FE00F0DDFE40F25021C2F2CC
:102BA0000001096808F196024A6304F19602963022
:102BB0008A63C86378B29630086495F9101095F965
:102BC000112095F91230571807EB030C521A0FFA1F
:102BD0008CF6D11A0DB21A44FB1A8CEAE637A7EB31
:102BE000E63781EAE536A6EBE53614B23FB236B2F7
:102BF000BE42C8BF374682EAE436A6EBE43618B2D6
:102C000036B2BE42C8BF374683EAE036A6EBE030B4
:102C100000B2B842C8BF0746652F0ED3B8B26427CA
:102C20000CFB07F679437A437B4396FBF0FC91FB60
:102C3000F0F192FBF0F293FBF0F3CCF10000524282
:102C400009B21BB200B212B2BDE8F04100F002B806
:102C5000704700002DE9F04381B040F60009C4F24E
:102C6000010909F50065984616460F4604460128F5
:102C700028464FF4005107DB0122FDF7A3FE28464A
:102C80004FF4804100220AE00022FDF79BFE284617
:102C90004FF48041B4F1FF3F60DD00220024FDF7D6
:102CA00091FE20B240F20824C2F200042168012FF4
:102CB000486309F500604FF4004107DB0122FDF78E
:102CC00081FE4846012100220AE000BF0022FDF7F4
:102CD00079FE48460121B7F1FF3F45DD002200277C
:102CE000FDF770FE216838B2012E886348464FF028
:102CF000020107DB0122FDF765FE484604210022A0
:102D00000AE000BF0022FDF75DFE48460421B6F14F
:102D1000FF3F2FDD00220026FDF754FE216830B270
:102D2000B8F1010FC86348464FF0080108DB0122E3
:102D3000FDF748FE484610210022FDF743FE24E03F
:102D40000022FDF73FFE48461021B8F1FF3F17DD96
:102D500000224FF00008FDF735FE16E00122FDF7D6
:102D600031FE64429DE700BF0122FDF72BFE7F424A
:102D7000B8E700BF0122FDF725FE7642CEE700BF8F
:102D80000122FDF71FFEC8F1000820680FFA88F144
:102D9000016401B0BDE8F083FDF720BE704700007C
:102DA00040F2C010C2F20000FEF7B0BB406A0168FA
:102DB0004A6990F84130212B2DD112F080022AD09F
:102DC0000021C184016851E8031F026821F0C0019D
:102DD00042E80313DBB1016851E8031F026821F0E8
:102DE000C00142E8031393B1016851E8031F026870
:102DF00021F0C00142E803134BB1016851E8031F01
:102E0000026821F0C00142E80313002BDAD120212F
:102E100080F841100168496990F84220222A40F068
:102E20007D8011F0400179D00021C185016851E811
:102E3000031F026821F4907142E80313BBB30168D9
:102E400051E8031F026821F4907142E8031373B341
:102E5000016851E8031F026821F4907142E80313EE
:102E60002BB3016851E8031F026821F4907142E816
:102E70000313002BDAD11AE0016851E8051F02683C
:102E800021F0010142E80513DBB1016851E8051F9B
:102E9000026821F0010142E8051393B1016851E88D
:102EA000051F026821F0010142E805134BB10168DA
:102EB00051E8051F026821F0010142E80513002BCB
:102EC000DAD1016B012924D1016851E8031F02689E
:102ED00021F0100142E80313DBB1016851E8031F40
:102EE000026821F0100142E8031393B1016851E830
:102EF000031F026821F0100142E803134BB101687F
:102F000051E8031F026821F0100142E80313002B6F
:102F1000DAD1202180F8421000210163416C41F098
:102F200010014164FEF7E0BD0168406A0968890646
:102F300000F19F800021C185016851E8031F0268EC
:102F400021F4807142E80313E3B1016851E8031FE3
:102F5000026821F4807142E803139BB1016851E8D3
:102F6000031F026821F4807142E8031353B1016822
:102F700051E8031F026821F4807142E80313002B1B
:102F8000DAD100BF016851E8051F026821F0010194
:102F900042E80513BBB3016851E8051F026821F040
:102FA000010142E8051373B3016851E8051F026887
:102FB00021F0010142E805132BB3016851E8051F18
:102FC000026821F0010142E80513002BDAD11AE072
:102FD000016851E8051F026821F0400142E805132D
:102FE000DBB1016851E8051F026821F0400142E8A9
:102FF000051393B1016851E8051F026821F04001F3
:1030000042E805134BB1016851E8051F026821F041
:10301000400142E80513002BDAD1202180F842104C
:10302000016B012925D100BF016851E8031F026827
:1030300021F0100142E80313DBB1016851E8031FDE
:10304000026821F0100142E8031393B1016851E8CE
:10305000031F026821F0100142E803134BB101681D
:1030600051E8031F026821F0100142E80313002B0E
:10307000DAD100214163016B012918BFFEF724BF9B
:10308000818DFEF72FBD0000406A01214163016B75
:10309000012918BFFEF71ABF818D4908FEF722BD2E
:1030A000FEE700002DE9F04F81B0C1B2009000EBC7
:1030B000D11040B2401040F20006C2F2000688B1C2
:1030C00001281FD002282BD140F2000800274EF221
:1030D000D600CCF245080025CCF240074FF000099D
:1030E00030802AE045F253104CF2000844F2000709
:1030F0003080C4F254080025C4F254074FF0000990
:103100001BE000BF41F6043040F200080027308089
:10311000C4F210080025C4F23B074FF000090CE090
:1031200096F9000096F9015000F043FC81462846CC
:10313000884600F03EFC05460F4640F2BC00C2F255
:10314000000049F69A1249F6991390F9174096F93A
:103150000260C9F69912C3F6E9734846414600F089
:103160003FFC0023C4F23403002200F04BFB00F0CC
:10317000F1FB00238246C3F6E87328463946002255
:1031800000F02EFC0023C4F23903002200F03AFBC9
:1031900000F0E0FB40F25021C2F20001D1F800B093
:1031A00096340AF196019630CBF83440CBF83810BB
:1031B000CBF83C004846414649F69A1949F6991819
:1031C000C9F69919C3F6E97806F1960A4A464346C4
:1031D000CBF840A000F004FC00230022C4F234032A
:1031E00000F010FB00F0B6FB39460027C3F6E87785
:1031F0000646284600223B4600F0F2FB0023002250
:10320000C4F2390300F0FEFA00F0A4FB06F19601C7
:10321000963040F20005CBF83440CBF83810CBF8AC
:103220003C006424C2F200054FF4FA70CBF840A0D1
:10323000AC70FDF7A5FA0098411C6FF35E015220B7
:10324000012908BF4C20FFF7B3F94620FFF7A4F887
:1032500040F2BC00C2F2000090F9176095F900003E
:10326000294695F901508C7000F0A3FB4A4643466D
:1032700000F0B6FB00230022C4F2340300F0C2FACF
:1032800000F068FB0446284600F093FB00223B4612
:1032900000F0A6FB00230022C4F2390300F0B2FACA
:1032A00000F058FB40F25021C2F20001096806F11B
:1032B00096024A6304F196028A639630FA22C86342
:1032C00042200A6401B0BDE8F04FFFF765B8000086
:1032D00090B0FDF791FB00240120CDE90B44CDE92E
:1032E000094406900A904FF4E0104FF48031022513
:1032F0000F9006A8CDE90714CDE90D51FDF72EFD7D
:1033000020B1EFF3108072B6FEE700BF0F20CDE9C9
:1033100001054FF48060CDE9040401A80221039463
:10332000FDF714FC20B1EFF3108072B6FEE700BF8A
:10333000FEF7FAFDFEF7CEFDFEF7F0FFFEF786FE84
:10334000FFF70AF8FEF748FEFEF736FF40F20824C2
:10335000C2F2000420460021FEF736FB204604217D
:10336000FEF732FB20460821FEF72EFB20460C21FB
:10337000FEF72AFB40F25024C2F20004204600214E
:10338000FEF722FB20460421FEF71EFB2046082103
:10339000FEF71AFB20460C21FEF716FB40F2C01088
:1033A000C2F20000FDF7AAFF40F2982040F2B031CF
:1033B000C2F20000C2F200018022FEF7D5FC40F20A
:1033C000E02040F22831C2F20000C2F20001802267
:1033D000FEF7CAFC206896214163FA218163C1632C
:1033E000016400BFFEE700002DE9F04140F6000453
:1033F000C4F2010404F5006528464FF4005101228F
:10340000FDF7E0FA28464FF4804100224FF0000813
:10341000FDF7D8FA40F20827C2F2000738686426A0
:10342000466328464FF400410122FDF7CBFA2046BF
:1034300001210022FDF7C6FA386802218663204682
:103440000122FDF7BFFA204604210022FDF7BAFA57
:1034500038680821C66320460122FDF7B3FA2046EA
:1034600010210022FDF7AEFA386806644FF4FA70B6
:10347000FDF786F928464FF400510022FDF7A2FA25
:1034800028464FF480410122FDF79CFA38684FF43A
:103490000041466328460022FDF794FA20460121A8
:1034A0000122FDF78FFA3868022186632046002248
:1034B000FDF788FA204604210122FDF783FA3868D7
:1034C0000821C66320460022FDF77CFA2046102121
:1034D0000122FDF777FA386806644FF4FA70FDF7B9
:1034E0004FF928464FF400510022FDF76BFA2846A9
:1034F0004FF480410022FDF765FA38684FF400412F
:10350000C0F8348028460022FDF75CFA20460121ED
:103510000022FDF757FA38680221C0F838802046AB
:103520000022FDF74FFA204604210022FDF74AFA57
:1035300038680821C0F83C8020460022FDF742FA96
:10354000204610210022FDF73DFA3868C0F840807F
:10355000BDE8F0812DE9F04F40F2982340F2980148
:10356000C2F20003C2F200010022DB6B4A701A684B
:1035700040F230075268C2F20007C2F180088A8820
:103580001FFA88F3A1F80280934238BF80339A1A59
:10359000D1E90534B7F800E002EB0309A9EB4E03CB
:1035A0009C42C1F814901ADA4FEA4E050EEB4E0C0D
:1035B00004EB0E079F420DDA2A199A420CDA644492
:1035C0009C420BDA07EB0E02724402EB0E049C42A3
:1035D000EEDB03E03C4601E004EB4E048C61A9EB1A
:1035E0000E0294424FF0000C08DD4FF0000B5FFA22
:1035F0008BF0A1F80480BDE8F08F00BF40F2B0323C
:1036000000F10E0AC2F200024FF0000B0AE000BF08
:10361000CB69013401338C61CB61A9EB0E039C4271
:1036200000F3E880E31704EB536323F07F03E51A0C
:10363000ABB212F803806B1CB8F1A50FCD800B81E3
:10364000E6D105F10D0707F07F07D75D5A2FDFD1CF
:103650009FB27F2F88BFA5F17F035F1C9DB2BEB2D2
:10366000555D7F2E88BFA3F17F077B1C9EB27F2E06
:10367000BEB2965D88BFA7F17F039FB2D75D354488
:103680005E1C3D44B7B27F2F88BFA3F17F06731C39
:103690009FB27F2FB7B2D75D88BFA6F17F039EB2DE
:1036A000965D3D4435445E1CB7B27F2F88BFA3F1C1
:1036B0007F06731C9FB27F2FB7B2D75D88BFA6F17C
:1036C0007F039EB2965D3D4435445E1CB7B27F2FAA
:1036D00088BFA3F17F06731C9FB27F2FB7B2D75D5F
:1036E00088BFA6F17F039EB2965D3D4435445E1CC3
:1036F000B7B27F2F88BFA3F17F06731C9FB27F2FC5
:10370000B7B2D75D88BFA6F17F039EB2965D3D44F8
:1037100035445E1CB7B27F2F88BFA3F17F06B3B2DA
:10372000D35CEFB29F420D70CE807FF471AF022365
:10373000002400250862C1F80A30CC8106E000BFF1
:10374000CB895D1CABB20E2BCD811BD20B89A6B2EF
:10375000D35CAFB2F3400E6A03F00103F3558B89DB
:103760005C1CA3B2072B8C81EAD90B89CF8901336A
:103770007D1C0B81ABB200240E2B8C81CD81E5D357
:1037800005E000BF230402D00B8901330B810C89B3
:1037900009235546C1F820A04B81A1F810C000BFF5
:1037A000A3B2802B24BF803C0C81A3B2D35C2B70CE
:1037B0000B890F8A5C1C7B1C4F899EB2BE420F6A2C
:1037C0000C8107F101050D620B82E9D340F2300351
:1037D000C2F20003B3F800E0D1E905934FF0010B0A
:1037E00003EB0E048C6181F801B0A9EB0E039C423F
:1037F0007FF718AFB1F802805FFA8BF0A1F8048070
:10380000BDE8F08F10B591EA030F48BF83F0004385
:1038100000F1EC81841A71EB030C05D2121943EB11
:103820000C03001B61EB0C014FEA1154A4EB135C79
:10383000DFF81CE11EEA430F18BF9EEA445F00F068
:10384000748021EA045123EA0E0343F48013DCF16F
:10385000200E32D322FA0CFE10EB0E0023FA0CFEDF
:1038600041EB0E01CCF1200E03FA0EFE10EB0E0020
:10387000CCF1200E51F10001B1F5801F32D201EBE5
:10388000045112FA0EF2BDE8104058BF7047401CB8
:1038900038BF5FEA420218BF7047002814BF20F00B
:1038A000010041F100014FEA410313F5001F38BF49
:1038B0007047A1F1C04100F08BB9012A43EB03022C
:1038C000ACF1200CDCF11F0E32BF4FF0000E23FADA
:1038D0000CF310EB030041EB0451B4EB115FD0D0BB
:1038E000A1EB045101F58011490801EB04515FEA95
:1038F00030000ED350F1000038BF12FA0EFE08D18E
:10390000BDE81040C9E7401C38BF5FEA4202CAD197
:10391000C3E7BDE810404FEA410313F5001F38BF6D
:103920007047A1F1C04100F053B99EEA445F08D04E
:1039300011EA5E0FBDE8104004BF01F00041002015
:103940007047BDE8104070B500F0F4F864FBBE3E6F
:103950000000E0FF4FEA41034FEA5353A3F58063B1
:10396000D3F11E03C8BFD3F1210C0CDD4FF0004290
:1039700042EAC12242EA505232FA03FC8CEAE17C6C
:10398000ACEBE1707047102BC4BF0020704703F50B
:10399000787CBCF1FF3F04D06FF0004282EA210046
:1039A000704770B500F0C6F8499224800020704737
:1039B000F2E710F0004248BF4042B0FA80F310FA3C
:1039C00003F10AD0C3F11D0303F5806302EB035238
:1039D0004FEA415002EBD12170474FF00000704791
:1039E00070B5DFF848C11CEA111E1EBF1CEA131592
:1039F0009EEA0C0F95EA0C0F00F06F8081EA030439
:103A00004EEAD47EAE4421EA4C1123EA4C1341F431
:103A1000801143F48013AEF17F7EA1FB024CA0FB2A
:103A20000365361955EB0C05A1FB034C4CF1000363
:103A3000A0FB021C16EB0C06654153F10003094282
:103A400018BF46F0010613F4007F0BD14FEA033193
:103A50004FEA053041EA155140EA165034036FF041
:103A600003020AE04FEAC3214FEAC52041EA55515B
:103A700040EA5650F4026FF0020202EB2E4201EBD4
:103A8000025585EACE710AD05FEA440C18BF24F0D3
:103A9000004450F1000041F1000120EAD47040F2EE
:103AA000FE7C624500D270BDA84214BF4FF0804436
:103AB0004FF04044002E08BF0024BEF1806FA8BF25
:103AC000A1F1C041BDE8704080F2828001F1C041A7
:103AD00001F000414FF0000070470CEA13159EEA18
:103AE0000C0F18BF95EA0C0F06D081EA030E4FF0B9
:103AF00000000EF0004170BD00F01CF88900013E8E
:103B000000F007B800F009B84FEA430C5FEA5C5CCC
:103B100008D081EA030100F05BB84FEA410C5FEA8C
:103B20005C5CF6D102494FF0000070470000FF07CF
:103B30000000F87F0EF1020E2EF0030E5EF8046B0B
:103B4000364205D4012A43EB030515F5001F12D8B0
:103B5000012841EB010C1CF5001F0CD80ED14FEAD7
:103B6000D17C0CEB4C0C0CF1020C15F5001F08BFBE
:103B70004CEBD37C04E04FF0080C01E04FEAD37C1F
:103B80000CEB4C0526FA05F606F00706B6F1040C18
:103B900006D20EEB860CBDE870404CF0010C60477D
:103BA000DFE80CF0090B02024FF00041A1F5002103
:103BB0004FF0000070BD19461046012851EB01047A
:103BC00018BFD4F5001484BF002001F0004170BD7F
:103BD0000808A0F500114FEA3101704710B591EACD
:103BE000030F48BF83F000433FF514AE841A71EB16
:103BF000030C07D28CF0004C121943EB0C03001B92
:103C000061EB0C014FEA1154A4EB135CDFF8A4E163
:103C10001EEA430F18BF9EEA445F00F0B48021EA19
:103C2000045123EA6E035242C3EB6E0338BF5B1E9E
:103C3000DCF1200E25D322FA0CFE10EB0E0043FA25
:103C40000CFE41EB0E01CCF1200E03FA0EFE10EB40
:103C50000E00CCF1200E51F1000129D401EB0451EA
:103C600012FA0EF2BDE8104058BF7047401C1CBF4E
:103C7000B2F1004F704700280CBF491C20F0010032
:103C8000704712EB020E43EB030218BF4FF0010E18
:103C90004EEA4202ACF1200CDCF11E0E56D943FA7A
:103CA0000CFE10EB0E00CCF11E0E51F1FF31D5D5FC
:103CB0000EF1010E12FA0EFE404141EB010101EB43
:103CC000445C5FEA5C5C10D901EB045110EBDE70E0
:103CD00038BFBEF1004FBDE8104018BF7047002844
:103CE0000CBF491C20F00100704734D24FEAD42C9D
:103CF00024F4006411F500111BD0B1FA81F20B3AE3
:103D0000A41AA41ED2F12003914030FA03F3194300
:103D1000904001EBCC7101EB0451002CBDE8104048
:103D2000A8BF704701F1C04101F000414FF0000011
:103D30007047B0FA80F310FA03F102D1BDE81040E9
:103D40007047E41A173C4805C90AE2E701EB045141
:103D5000BDE81040704749104FEA300001EB0451B4
:103D6000BDE8104002E04FF0000170474A0008BF74
:103D70000042F8D0B2F5001F28BF704701F00041A3
:103D80004FF0000070479EEA445F07D011EA5E0FD3
:103D9000BDE8104004BF002100207047BDE810407E
:103DA00070B5FFF7C7FE00BF40DFF63E104683F058
:103DB000004170470000E0FF00000000000000002C
:103DC00001020304060708090000000001020304C1
:103DD000010202030405060708090A0B0C0D0E0F69
:103DE00010100000083E000800000020380000000D
:103DF00028010008403E000838000020F8090000B3
:103E0000440100080000000064646459585A58597D
:103E10005A000000BD000020BE000020BF000020AE
:103E2000C0000020C1000020C200002001000000EE
:103E30001000000000127A000E00000000000000D8
:04000005080000ED02
:00000001FF
